{
  "contractName": "MetaturfHorseRacingData",
  "abi": [
    {
      "inputs": [],
      "stateMutability": "nonpayable",
      "type": "constructor"
    },
    {
      "anonymous": false,
      "inputs": [
        {
          "indexed": true,
          "internalType": "bytes32",
          "name": "id",
          "type": "bytes32"
        }
      ],
      "name": "ChainlinkCancelled",
      "type": "event"
    },
    {
      "anonymous": false,
      "inputs": [
        {
          "indexed": true,
          "internalType": "bytes32",
          "name": "id",
          "type": "bytes32"
        }
      ],
      "name": "ChainlinkFulfilled",
      "type": "event"
    },
    {
      "anonymous": false,
      "inputs": [
        {
          "indexed": true,
          "internalType": "bytes32",
          "name": "id",
          "type": "bytes32"
        }
      ],
      "name": "ChainlinkRequested",
      "type": "event"
    },
    {
      "anonymous": false,
      "inputs": [
        {
          "indexed": false,
          "internalType": "string",
          "name": "horsedata",
          "type": "string"
        }
      ],
      "name": "LogFulfillHorseData",
      "type": "event"
    },
    {
      "anonymous": false,
      "inputs": [
        {
          "indexed": false,
          "internalType": "string",
          "name": "winner",
          "type": "string"
        }
      ],
      "name": "LogFulfillRaceWinner",
      "type": "event"
    },
    {
      "anonymous": false,
      "inputs": [
        {
          "indexed": false,
          "internalType": "uint256",
          "name": "horseid",
          "type": "uint256"
        },
        {
          "indexed": false,
          "internalType": "string",
          "name": "name",
          "type": "string"
        },
        {
          "indexed": false,
          "internalType": "uint256",
          "name": "wins",
          "type": "uint256"
        }
      ],
      "name": "LogSetHorse",
      "type": "event"
    },
    {
      "anonymous": false,
      "inputs": [
        {
          "indexed": false,
          "internalType": "uint256",
          "name": "raceid",
          "type": "uint256"
        },
        {
          "indexed": false,
          "internalType": "string",
          "name": "racecourse",
          "type": "string"
        },
        {
          "indexed": false,
          "internalType": "string",
          "name": "date",
          "type": "string"
        },
        {
          "indexed": false,
          "internalType": "string",
          "name": "time",
          "type": "string"
        },
        {
          "indexed": false,
          "internalType": "uint256",
          "name": "winnerhorseid",
          "type": "uint256"
        }
      ],
      "name": "LogSetRace",
      "type": "event"
    },
    {
      "inputs": [
        {
          "internalType": "uint256",
          "name": "",
          "type": "uint256"
        }
      ],
      "name": "horses",
      "outputs": [
        {
          "internalType": "uint256",
          "name": "horseid",
          "type": "uint256"
        },
        {
          "internalType": "string",
          "name": "name",
          "type": "string"
        },
        {
          "internalType": "uint256",
          "name": "wins",
          "type": "uint256"
        }
      ],
      "stateMutability": "view",
      "type": "function"
    },
    {
      "inputs": [
        {
          "internalType": "uint256",
          "name": "",
          "type": "uint256"
        }
      ],
      "name": "races",
      "outputs": [
        {
          "internalType": "uint256",
          "name": "raceid",
          "type": "uint256"
        },
        {
          "internalType": "string",
          "name": "racecourse",
          "type": "string"
        },
        {
          "internalType": "string",
          "name": "date",
          "type": "string"
        },
        {
          "internalType": "string",
          "name": "time",
          "type": "string"
        },
        {
          "internalType": "uint256",
          "name": "winnerhorseid",
          "type": "uint256"
        }
      ],
      "stateMutability": "view",
      "type": "function"
    },
    {
      "inputs": [
        {
          "internalType": "uint256",
          "name": "_raceid",
          "type": "uint256"
        }
      ],
      "name": "requestOracleRaceWinner",
      "outputs": [
        {
          "internalType": "bytes32",
          "name": "requestId",
          "type": "bytes32"
        }
      ],
      "stateMutability": "nonpayable",
      "type": "function"
    },
    {
      "inputs": [
        {
          "internalType": "bytes32",
          "name": "_requestId",
          "type": "bytes32"
        },
        {
          "internalType": "bytes32",
          "name": "_winner",
          "type": "bytes32"
        }
      ],
      "name": "fulfillRaceWinner",
      "outputs": [],
      "stateMutability": "nonpayable",
      "type": "function"
    },
    {
      "inputs": [
        {
          "internalType": "uint256",
          "name": "_horseid",
          "type": "uint256"
        }
      ],
      "name": "requestOracleHorseData",
      "outputs": [
        {
          "internalType": "bytes32",
          "name": "requestId",
          "type": "bytes32"
        }
      ],
      "stateMutability": "nonpayable",
      "type": "function"
    },
    {
      "inputs": [
        {
          "internalType": "bytes32",
          "name": "_requestId",
          "type": "bytes32"
        },
        {
          "internalType": "bytes32",
          "name": "_horsedata",
          "type": "bytes32"
        }
      ],
      "name": "fulfillHorseData",
      "outputs": [],
      "stateMutability": "nonpayable",
      "type": "function"
    },
    {
      "inputs": [],
      "name": "withdrawLink",
      "outputs": [],
      "stateMutability": "nonpayable",
      "type": "function"
    },
    {
      "inputs": [
        {
          "internalType": "uint256",
          "name": "_horseid",
          "type": "uint256"
        }
      ],
      "name": "theHorseExists",
      "outputs": [
        {
          "internalType": "bool",
          "name": "",
          "type": "bool"
        }
      ],
      "stateMutability": "view",
      "type": "function"
    },
    {
      "inputs": [
        {
          "internalType": "uint256",
          "name": "_horseid",
          "type": "uint256"
        },
        {
          "internalType": "string",
          "name": "_name",
          "type": "string"
        },
        {
          "internalType": "uint256",
          "name": "_wins",
          "type": "uint256"
        }
      ],
      "name": "setHorse",
      "outputs": [],
      "stateMutability": "nonpayable",
      "type": "function"
    },
    {
      "inputs": [
        {
          "internalType": "string",
          "name": "_csvhorsedata",
          "type": "string"
        }
      ],
      "name": "setHorseFromCSV",
      "outputs": [],
      "stateMutability": "nonpayable",
      "type": "function"
    },
    {
      "inputs": [
        {
          "internalType": "uint256",
          "name": "_horseid",
          "type": "uint256"
        }
      ],
      "name": "getHorse",
      "outputs": [
        {
          "internalType": "string",
          "name": "",
          "type": "string"
        },
        {
          "internalType": "uint256",
          "name": "",
          "type": "uint256"
        }
      ],
      "stateMutability": "view",
      "type": "function"
    },
    {
      "inputs": [],
      "name": "listHorses",
      "outputs": [
        {
          "internalType": "uint256[]",
          "name": "",
          "type": "uint256[]"
        }
      ],
      "stateMutability": "view",
      "type": "function"
    },
    {
      "inputs": [
        {
          "internalType": "uint256",
          "name": "_horseid",
          "type": "uint256"
        },
        {
          "internalType": "uint256",
          "name": "_wins",
          "type": "uint256"
        }
      ],
      "name": "updateHorseWins",
      "outputs": [],
      "stateMutability": "nonpayable",
      "type": "function"
    },
    {
      "inputs": [
        {
          "internalType": "uint256",
          "name": "_raceid",
          "type": "uint256"
        },
        {
          "internalType": "string",
          "name": "_racecourse",
          "type": "string"
        },
        {
          "internalType": "string",
          "name": "_date",
          "type": "string"
        },
        {
          "internalType": "string",
          "name": "_time",
          "type": "string"
        },
        {
          "internalType": "uint256",
          "name": "_winnerhorseid",
          "type": "uint256"
        }
      ],
      "name": "setRace",
      "outputs": [],
      "stateMutability": "nonpayable",
      "type": "function"
    },
    {
      "inputs": [
        {
          "internalType": "uint256",
          "name": "_raceid",
          "type": "uint256"
        }
      ],
      "name": "getRace",
      "outputs": [
        {
          "internalType": "string",
          "name": "",
          "type": "string"
        },
        {
          "internalType": "string",
          "name": "",
          "type": "string"
        },
        {
          "internalType": "string",
          "name": "",
          "type": "string"
        },
        {
          "internalType": "uint256",
          "name": "",
          "type": "uint256"
        }
      ],
      "stateMutability": "view",
      "type": "function"
    },
    {
      "inputs": [],
      "name": "listRaces",
      "outputs": [
        {
          "internalType": "uint256[]",
          "name": "",
          "type": "uint256[]"
        }
      ],
      "stateMutability": "view",
      "type": "function"
    }
  ],
  "bytecode": "0x608060405260016004553480156200001657600080fd5b5033600660006101000a81548173ffffffffffffffffffffffffffffffffffffffff021916908373ffffffffffffffffffffffffffffffffffffffff1602179055506200007162000166640100000000026401000000009004565b739dd3298dad96648e7fdf5632b9813d22bbb3eb61600960006101000a81548173ffffffffffffffffffffffffffffffffffffffff021916908373ffffffffffffffffffffffffffffffffffffffff1602179055507f3964616137663531333061623434333961363364656534326131356431313961600a81905550670de0b6b3a7640000600b8190555060405180608001604052806048815260200162004fcb60489139600790805190602001906200012d92919062000267565b506040518060800160405280604b815260200162004f80604b9139600890805190602001906200015f92919062000267565b5062000418565b6200022173c89bd4e1632d3a43cb03aaad5262cbe4038bc57173ffffffffffffffffffffffffffffffffffffffff166338cc48316040518163ffffffff167c0100000000000000000000000000000000000000000000000000000000028152600401602060405180830381865afa158015620001e6573d6000803e3d6000fd5b505050506040513d601f19601f820116820180604052508101906200020c919062000381565b62000223640100000000026401000000009004565b565b80600260006101000a81548173ffffffffffffffffffffffffffffffffffffffff021916908373ffffffffffffffffffffffffffffffffffffffff16021790555050565b8280546200027590620003e2565b90600052602060002090601f016020900481019282620002995760008555620002e5565b82601f10620002b457805160ff1916838001178555620002e5565b82800160010185558215620002e5579182015b82811115620002e4578251825591602001919060010190620002c7565b5b509050620002f49190620002f8565b5090565b5b8082111562000313576000816000905550600101620002f9565b5090565b600080fd5b600073ffffffffffffffffffffffffffffffffffffffff82169050919050565b600062000349826200031c565b9050919050565b6200035b816200033c565b81146200036757600080fd5b50565b6000815190506200037b8162000350565b92915050565b6000602082840312156200039a576200039962000317565b5b6000620003aa848285016200036a565b91505092915050565b7f4e487b7100000000000000000000000000000000000000000000000000000000600052602260045260246000fd5b60006002820490506001821680620003fb57607f821691505b60208210811415620004125762000411620003b3565b5b50919050565b614b5880620004286000396000f3fe608060405234801561001057600080fd5b506004361061011d576000357c0100000000000000000000000000000000000000000000000000000000900480638dc654a2116100b4578063c5215ab711610083578063c5215ab7146102e4578063d42318af14610302578063e82ed9b41461031e578063f81bb2f21461034e5761011d565b80638dc654a21461026e5780638f8b5cde146102785780639bfb69bd146102aa578063add57295146102c85761011d565b80634e119023116100f05780634e119023146101d15780634f57641c146101ed5780636d2e848a1461021e5780637bbc469e1461023a5761011d565b806304d8a67e146101225780630bc105a2146101525780630d71aba51461018257806330adf7e6146101b5575b600080fd5b61013c600480360381019061013791906135d0565b61036a565b6040516101499190613616565b60405180910390f35b61016c600480360381019061016791906135d0565b6105a3565b6040516101799190613616565b60405180910390f35b61019c600480360381019061019791906135d0565b6107dc565b6040516101ac94939291906136d9565b60405180910390f35b6101cf60048036038101906101ca9190613868565b610ab2565b005b6101eb60048036038101906101e691906138b1565b610f0b565b005b610207600480360381019061020291906135d0565b611238565b604051610215929190613980565b60405180910390f35b610238600480360381019061023391906139dc565b6113c1565b005b610254600480360381019061024f91906135d0565b611601565b604051610265959493929190613a1c565b60405180910390f35b6102766117cf565b005b610292600480360381019061028d91906135d0565b6119dc565b6040516102a193929190613a84565b60405180910390f35b6102b2611a8e565b6040516102bf9190613b80565b60405180910390f35b6102e260048036038101906102dd9190613ba2565b611ae6565b005b6102ec611cb4565b6040516102f99190613b80565b60405180910390f35b61031c600480360381019061031791906139dc565b611d0c565b005b610338600480360381019061033391906135d0565b611f4c565b6040516103459190613bfd565b60405180910390f35b61036860048036038101906103639190613c18565b611f7f565b005b6000600660009054906101000a900473ffffffffffffffffffffffffffffffffffffffff1673ffffffffffffffffffffffffffffffffffffffff163373ffffffffffffffffffffffffffffffffffffffff16146103fc576040517f08c379a00000000000000000000000000000000000000000000000000000000081526004016103f390613cf9565b60405180910390fd5b600061042e600a543063d42318af7c01000000000000000000000000000000000000000000000000000000000261219d565b9050600061043b846121ce565b905060006040518060400160405280600c81526020017f26666f726d61743d6a736f6e0000000000000000000000000000000000000000815250905060006007838360405160200161048f93929190613e4a565b60405160208183030381529060405290506104ea6040518060400160405280600381526020017f676574000000000000000000000000000000000000000000000000000000000081525082866124079092919063ffffffff16565b6105696040518060400160405280600481526020017f70617468000000000000000000000000000000000000000000000000000000008152506040518060400160405280600b81526020017f646174612e77696e6e6572000000000000000000000000000000000000000000815250866124079092919063ffffffff16565b610598600960009054906101000a900473ffffffffffffffffffffffffffffffffffffffff1685600b5461243a565b945050505050919050565b6000600660009054906101000a900473ffffffffffffffffffffffffffffffffffffffff1673ffffffffffffffffffffffffffffffffffffffff163373ffffffffffffffffffffffffffffffffffffffff1614610635576040517f08c379a000000000000000000000000000000000000000000000000000000000815260040161062c90613cf9565b60405180910390fd5b6000610667600a5430636d2e848a7c01000000000000000000000000000000000000000000000000000000000261219d565b90506000610674846121ce565b905060006040518060400160405280600c81526020017f26666f726d61743d6a736f6e000000000000000000000000000000000000000081525090506000600883836040516020016106c893929190613e4a565b60405160208183030381529060405290506107236040518060400160405280600381526020017f676574000000000000000000000000000000000000000000000000000000000081525082866124079092919063ffffffff16565b6107a26040518060400160405280600481526020017f70617468000000000000000000000000000000000000000000000000000000008152506040518060400160405280600481526020017f6461746100000000000000000000000000000000000000000000000000000000815250866124079092919063ffffffff16565b6107d1600960009054906101000a900473ffffffffffffffffffffffffffffffffffffffff1685600b5461243a565b945050505050919050565b6060806060600084600180610849576000600c60008481526020019081526020016000206000015414610844576040517f08c379a000000000000000000000000000000000000000000000000000000000815260040161083b90613ec7565b60405180910390fd5b6108a4565b6000600c60008481526020019081526020016000206000015414156108a3576040517f08c379a000000000000000000000000000000000000000000000000000000000815260040161089a90613f33565b60405180910390fd5b5b600c6000888152602001908152602001600020600101600c6000898152602001908152602001600020600201600c60008a8152602001908152602001600020600301600c60008b81526020019081526020016000206004015483805461090990613d48565b80601f016020809104026020016040519081016040528092919081815260200182805461093590613d48565b80156109825780601f1061095757610100808354040283529160200191610982565b820191906000526020600020905b81548152906001019060200180831161096557829003601f168201915b5050505050935082805461099590613d48565b80601f01602080910402602001604051908101604052809291908181526020018280546109c190613d48565b8015610a0e5780601f106109e357610100808354040283529160200191610a0e565b820191906000526020600020905b8154815290600101906020018083116109f157829003601f168201915b50505050509250818054610a2190613d48565b80601f0160208091040260200160405190810160405280929190818152602001828054610a4d90613d48565b8015610a9a5780601f10610a6f57610100808354040283529160200191610a9a565b820191906000526020600020905b815481529060010190602001808311610a7d57829003601f168201915b50505050509150955095509550955050509193509193565b600660009054906101000a900473ffffffffffffffffffffffffffffffffffffffff1673ffffffffffffffffffffffffffffffffffffffff163373ffffffffffffffffffffffffffffffffffffffff161480610b5b5750600960009054906101000a900473ffffffffffffffffffffffffffffffffffffffff1673ffffffffffffffffffffffffffffffffffffffff163373ffffffffffffffffffffffffffffffffffffffff16145b610b9a576040517f08c379a0000000000000000000000000000000000000000000000000000000008152600401610b9190613fc5565b60405180910390fd5b6000610ba582612476565b90506000610be76040518060400160405280600181526020017f2c00000000000000000000000000000000000000000000000000000000000000815250612476565b905060006001610c0083856124a490919063ffffffff16565b610c0a9190614014565b67ffffffffffffffff811115610c2357610c2261373d565b5b604051908082528060200260200182016040528015610c5657816020015b6060815260200190600190039081610c415790505b50905060005b8151811015610cb157610c80610c7b848661254c90919063ffffffff16565b612566565b828281518110610c9357610c9261406a565b5b60200260200101819052508080610ca990614099565b915050610c5c565b506003815114610cf6576040517f08c379a0000000000000000000000000000000000000000000000000000000008152600401610ced90614154565b60405180910390fd5b6000610d1c82600081518110610d0f57610d0e61406a565b5b60200260200101516125e2565b90506000600d6000838152602001908152602001600020600001541415610e0b57600e819080600181540180825580915050600190039060005260206000200160009091909190915055604051806060016040528082815260200183600181518110610d8b57610d8a61406a565b5b60200260200101518152602001610dbc84600281518110610daf57610dae61406a565b5b60200260200101516125e2565b815250600d6000838152602001908152602001600020600082015181600001556020820151816001019080519060200190610df8929190613442565b5060408201518160020155905050610e8b565b610e2f82600281518110610e2257610e2161406a565b5b60200260200101516125e2565b600d60008381526020019081526020016000206002015414610e8a57610e6f82600281518110610e6257610e6161406a565b5b60200260200101516125e2565b600d6000838152602001908152602001600020600201819055505b5b7f2bd2fe2c2a206f4e3cb61075257bfd732ee8cb5ef95fbfc15b770c5cd88944be8183600181518110610ec157610ec061406a565b5b6020026020010151610eed85600281518110610ee057610edf61406a565b5b60200260200101516125e2565b604051610efc93929190613a84565b60405180910390a15050505050565b600660009054906101000a900473ffffffffffffffffffffffffffffffffffffffff1673ffffffffffffffffffffffffffffffffffffffff163373ffffffffffffffffffffffffffffffffffffffff1614610f9b576040517f08c379a0000000000000000000000000000000000000000000000000000000008152600401610f9290613cf9565b60405180910390fd5b80600180611001576000600d60008481526020019081526020016000206000015414610ffc576040517f08c379a0000000000000000000000000000000000000000000000000000000008152600401610ff3906141e6565b60405180910390fd5b61105c565b6000600d600084815260200190815260200160002060000154141561105b576040517f08c379a000000000000000000000000000000000000000000000000000000000815260040161105290614252565b60405180910390fd5b5b866000806110c2576000600c600084815260200190815260200160002060000154146110bd576040517f08c379a00000000000000000000000000000000000000000000000000000000081526004016110b490613ec7565b60405180910390fd5b61111d565b6000600c600084815260200190815260200160002060000154141561111c576040517f08c379a000000000000000000000000000000000000000000000000000000000815260040161111390613f33565b60405180910390fd5b5b600f8990806001815401808255809150506001900390600052602060002001600090919091909150556040518060a001604052808a815260200189815260200188815260200187815260200186815250600c60008b81526020019081526020016000206000820151816000015560208201518160010190805190602001906111a6929190613442565b5060408201518160020190805190602001906111c3929190613442565b5060608201518160030190805190602001906111e0929190613442565b50608082015181600401559050507ff54fa781c5b161ed96a4baecc14e27d1e9d671a94b3932b43d76bbe19618f7918989898989604051611225959493929190613a1c565b60405180910390a1505050505050505050565b60606000826001806112a2576000600d6000848152602001908152602001600020600001541461129d576040517f08c379a0000000000000000000000000000000000000000000000000000000008152600401611294906141e6565b60405180910390fd5b6112fd565b6000600d60008481526020019081526020016000206000015414156112fc576040517f08c379a00000000000000000000000000000000000000000000000000000000081526004016112f390614252565b60405180910390fd5b5b600d6000868152602001908152602001600020600101600d60008781526020019081526020016000206002015481805461133690613d48565b80601f016020809104026020016040519081016040528092919081815260200182805461136290613d48565b80156113af5780601f10611384576101008083540402835291602001916113af565b820191906000526020600020905b81548152906001019060200180831161139257829003601f168201915b50505050509150935093505050915091565b600660009054906101000a900473ffffffffffffffffffffffffffffffffffffffff1673ffffffffffffffffffffffffffffffffffffffff163373ffffffffffffffffffffffffffffffffffffffff16148061146a5750600960009054906101000a900473ffffffffffffffffffffffffffffffffffffffff1673ffffffffffffffffffffffffffffffffffffffff163373ffffffffffffffffffffffffffffffffffffffff16145b6114a9576040517f08c379a00000000000000000000000000000000000000000000000000000000081526004016114a090613fc5565b60405180910390fd5b816005600082815260200190815260200160002060009054906101000a900473ffffffffffffffffffffffffffffffffffffffff1673ffffffffffffffffffffffffffffffffffffffff163373ffffffffffffffffffffffffffffffffffffffff161461154b576040517f08c379a0000000000000000000000000000000000000000000000000000000008152600401611542906142e4565b60405180910390fd5b6005600082815260200190815260200160002060006101000a81549073ffffffffffffffffffffffffffffffffffffffff0219169055807f7cc135e0cebb02c3480ae5d74d377283180a2601f8f644edf7987b009316c63a60405160405180910390a260006115b9836127d7565b90506115c481610ab2565b7f0ad84d73190c8b4eed240020401394b3828bc3eb7f5bacd9a84ed769fe70b7a6816040516115f39190614304565b60405180910390a150505050565b600c60205280600052604060002060009150905080600001549080600101805461162a90613d48565b80601f016020809104026020016040519081016040528092919081815260200182805461165690613d48565b80156116a35780601f10611678576101008083540402835291602001916116a3565b820191906000526020600020905b81548152906001019060200180831161168657829003601f168201915b5050505050908060020180546116b890613d48565b80601f01602080910402602001604051908101604052809291908181526020018280546116e490613d48565b80156117315780601f1061170657610100808354040283529160200191611731565b820191906000526020600020905b81548152906001019060200180831161171457829003601f168201915b50505050509080600301805461174690613d48565b80601f016020809104026020016040519081016040528092919081815260200182805461177290613d48565b80156117bf5780601f10611794576101008083540402835291602001916117bf565b820191906000526020600020905b8154815290600101906020018083116117a257829003601f168201915b5050505050908060040154905085565b600660009054906101000a900473ffffffffffffffffffffffffffffffffffffffff1673ffffffffffffffffffffffffffffffffffffffff163373ffffffffffffffffffffffffffffffffffffffff161461185f576040517f08c379a000000000000000000000000000000000000000000000000000000000815260040161185690613cf9565b60405180910390fd5b6000611869612a0d565b90508073ffffffffffffffffffffffffffffffffffffffff1663a9059cbb338373ffffffffffffffffffffffffffffffffffffffff166370a08231306040518263ffffffff167c01000000000000000000000000000000000000000000000000000000000281526004016118dd9190614367565b602060405180830381865afa1580156118fa573d6000803e3d6000fd5b505050506040513d601f19601f8201168201806040525081019061191e9190614397565b6040518363ffffffff167c01000000000000000000000000000000000000000000000000000000000281526004016119579291906143c4565b6020604051808303816000875af1158015611976573d6000803e3d6000fd5b505050506040513d601f19601f8201168201806040525081019061199a9190614419565b6119d9576040517f08c379a00000000000000000000000000000000000000000000000000000000081526004016119d090614492565b60405180910390fd5b50565b600d602052806000526040600020600091509050806000015490806001018054611a0590613d48565b80601f0160208091040260200160405190810160405280929190818152602001828054611a3190613d48565b8015611a7e5780601f10611a5357610100808354040283529160200191611a7e565b820191906000526020600020905b815481529060010190602001808311611a6157829003601f168201915b5050505050908060020154905083565b6060600e805480602002602001604051908101604052809291908181526020018280548015611adc57602002820191906000526020600020905b815481526020019060010190808311611ac8575b5050505050905090565b600660009054906101000a900473ffffffffffffffffffffffffffffffffffffffff1673ffffffffffffffffffffffffffffffffffffffff163373ffffffffffffffffffffffffffffffffffffffff1614611b76576040517f08c379a0000000000000000000000000000000000000000000000000000000008152600401611b6d90613cf9565b60405180910390fd5b81600180611bdc576000600d60008481526020019081526020016000206000015414611bd7576040517f08c379a0000000000000000000000000000000000000000000000000000000008152600401611bce906141e6565b60405180910390fd5b611c37565b6000600d6000848152602001908152602001600020600001541415611c36576040517f08c379a0000000000000000000000000000000000000000000000000000000008152600401611c2d90614252565b60405180910390fd5b5b838380600d60008481526020019081526020016000206002015410611c91576040517f08c379a0000000000000000000000000000000000000000000000000000000008152600401611c8890614524565b60405180910390fd5b84600d600088815260200190815260200160002060020181905550505050505050565b6060600f805480602002602001604051908101604052809291908181526020018280548015611d0257602002820191906000526020600020905b815481526020019060010190808311611cee575b5050505050905090565b600660009054906101000a900473ffffffffffffffffffffffffffffffffffffffff1673ffffffffffffffffffffffffffffffffffffffff163373ffffffffffffffffffffffffffffffffffffffff161480611db55750600960009054906101000a900473ffffffffffffffffffffffffffffffffffffffff1673ffffffffffffffffffffffffffffffffffffffff163373ffffffffffffffffffffffffffffffffffffffff16145b611df4576040517f08c379a0000000000000000000000000000000000000000000000000000000008152600401611deb90613fc5565b60405180910390fd5b816005600082815260200190815260200160002060009054906101000a900473ffffffffffffffffffffffffffffffffffffffff1673ffffffffffffffffffffffffffffffffffffffff163373ffffffffffffffffffffffffffffffffffffffff1614611e96576040517f08c379a0000000000000000000000000000000000000000000000000000000008152600401611e8d906142e4565b60405180910390fd5b6005600082815260200190815260200160002060006101000a81549073ffffffffffffffffffffffffffffffffffffffff0219169055807f7cc135e0cebb02c3480ae5d74d377283180a2601f8f644edf7987b009316c63a60405160405180910390a26000611f04836127d7565b9050611f0f81610ab2565b7fb55e101ef840e2e849a72ca9f3d71ac6790345ff99900a9dcef58d4cf3dd037781604051611f3e9190614304565b60405180910390a150505050565b600080600d6000848152602001908152602001600020600001541415611f755760009050611f7a565b600190505b919050565b600660009054906101000a900473ffffffffffffffffffffffffffffffffffffffff1673ffffffffffffffffffffffffffffffffffffffff163373ffffffffffffffffffffffffffffffffffffffff161461200f576040517f08c379a000000000000000000000000000000000000000000000000000000000815260040161200690613cf9565b60405180910390fd5b82600080612075576000600d60008481526020019081526020016000206000015414612070576040517f08c379a0000000000000000000000000000000000000000000000000000000008152600401612067906141e6565b60405180910390fd5b6120d0565b6000600d60008481526020019081526020016000206000015414156120cf576040517f08c379a00000000000000000000000000000000000000000000000000000000081526004016120c690614252565b60405180910390fd5b5b600e859080600181540180825580915050600190039060005260206000200160009091909190915055604051806060016040528086815260200185815260200184815250600d600087815260200190815260200160002060008201518160000155602082015181600101908051906020019061214d929190613442565b50604082015181600201559050507f2bd2fe2c2a206f4e3cb61075257bfd732ee8cb5ef95fbfc15b770c5cd88944be85858560405161218e93929190613a84565b60405180910390a15050505050565b6121a56134c8565b6121ad6134c8565b6121c485858584612a37909392919063ffffffff16565b9150509392505050565b606060006064905060008167ffffffffffffffff8111156121f2576121f161373d565b5b6040519080825280601f01601f1916602001820160405280156122245781602001600182028036833780820191505090505b50905060005b600085146122d5576000600a866122419190614573565b9050600a8661225091906145a4565b955080603061225f9190614014565b7f01000000000000000000000000000000000000000000000000000000000000000283838061228d90614099565b9450815181106122a05761229f61406a565b5b60200101907effffffffffffffffffffffffffffffffffffffffffffffffffffffffffffff1916908160001a9053505061222a565b60008167ffffffffffffffff8111156122f1576122f061373d565b5b6040519080825280601f01601f1916602001820160405280156123235781602001600182028036833780820191505090505b50905060005b828110156123fa57838160018561234091906145d5565b61234a91906145d5565b8151811061235b5761235a61406a565b5b60200101517f010000000000000000000000000000000000000000000000000000000000000090047f0100000000000000000000000000000000000000000000000000000000000000028282815181106123b8576123b761406a565b5b60200101907effffffffffffffffffffffffffffffffffffffffffffffffffffffffffffff1916908160001a90535080806123f290614099565b915050612329565b5080945050505050919050565b61241e828460800151612ae790919063ffffffff16565b612435818460800151612ae790919063ffffffff16565b505050565b600061246d848484600163404299467c010000000000000000000000000000000000000000000000000000000002612b0c565b90509392505050565b61247e613535565b600060208301905060405180604001604052808451815260200182815250915050919050565b60008082600001516124c88560000151866020015186600001518760200151612d81565b6124d29190614014565b90505b836000015184602001516124e99190614014565b81116125455781806124fa90614099565b925050826000015161253485602001518361251591906145d5565b866000015161252491906145d5565b8386600001518760200151612d81565b61253e9190614014565b90506124d5565b5092915050565b612554613535565b61255f838383612ec2565b5092915050565b60606000826000015167ffffffffffffffff8111156125885761258761373d565b5b6040519080825280601f01601f1916602001820160405280156125ba5781602001600182028036833780820191505090505b50905060006020820190506125d88185602001518660000151612f8d565b8192505050919050565b6000808290506000805b82518110156127cc57603083828151811061260a5761260961406a565b5b60200101517f010000000000000000000000000000000000000000000000000000000000000090047f0100000000000000000000000000000000000000000000000000000000000000027f0100000000000000000000000000000000000000000000000000000000000000900460ff161015801561270b575060398382815181106126985761269761406a565b5b60200101517f010000000000000000000000000000000000000000000000000000000000000090047f0100000000000000000000000000000000000000000000000000000000000000027f0100000000000000000000000000000000000000000000000000000000000000900460ff1611155b156127b95760308382815181106127255761272461406a565b5b60200101517f010000000000000000000000000000000000000000000000000000000000000090047f0100000000000000000000000000000000000000000000000000000000000000027f0100000000000000000000000000000000000000000000000000000000000000900461279c9190614616565b60ff16600a836127ac919061464a565b6127b69190614014565b91505b80806127c490614099565b9150506125ec565b508092505050919050565b606060005b60208160ff1610801561286c575060007f010000000000000000000000000000000000000000000000000000000000000002838260ff16602081106128245761282361406a565b5b1a7f0100000000000000000000000000000000000000000000000000000000000000027effffffffffffffffffffffffffffffffffffffffffffffffffffffffffffff191614155b1561288457808061287c906146a4565b9150506127dc565b60008160ff1667ffffffffffffffff8111156128a3576128a261373d565b5b6040519080825280601f01601f1916602001820160405280156128d55781602001600182028036833780820191505090505b509050600091505b60208260ff1610801561296d575060007f010000000000000000000000000000000000000000000000000000000000000002848360ff16602081106129255761292461406a565b5b1a7f0100000000000000000000000000000000000000000000000000000000000000027effffffffffffffffffffffffffffffffffffffffffffffffffffffffffffff191614155b15612a0357838260ff16602081106129885761298761406a565b5b1a7f010000000000000000000000000000000000000000000000000000000000000002818360ff16815181106129c1576129c061406a565b5b60200101907effffffffffffffffffffffffffffffffffffffffffffffffffffffffffffff1916908160001a90535081806129fb906146a4565b9250506128dd565b8092505050919050565b6000600260009054906101000a900473ffffffffffffffffffffffffffffffffffffffff16905090565b612a3f6134c8565b612a4f856080015161010061300c565b508385600001818152505082856020019073ffffffffffffffffffffffffffffffffffffffff16908173ffffffffffffffffffffffffffffffffffffffff16815250508185604001907bffffffffffffffffffffffffffffffffffffffffffffffffffffffff191690817bffffffffffffffffffffffffffffffffffffffffffffffffffffffff191681525050849050949350505050565b612af48260038351613076565b612b0781836131ca90919063ffffffff16565b505050565b600030600454604051602001612b23929190614793565b604051602081830303815290604052805190602001209050600454856060018181525050856005600083815260200190815260200160002060006101000a81548173ffffffffffffffffffffffffffffffffffffffff021916908373ffffffffffffffffffffffffffffffffffffffff160217905550807fb5e6e01e79f91267dc17b4e6314d5d4d03593d2ceee0fbb452b750bd70ea5af960405160405180910390a2600082600080886000015189602001518a604001518b606001518a8d6080015160000151604051602401612c0198979695949392919061484f565b604051602081830303815290604052907bffffffffffffffffffffffffffffffffffffffffffffffffffffffff19166020820180517bffffffffffffffffffffffffffffffffffffffffffffffffffffffff83818316178352505050509050600260009054906101000a900473ffffffffffffffffffffffffffffffffffffffff1673ffffffffffffffffffffffffffffffffffffffff16634000aea08887846040518463ffffffff167c0100000000000000000000000000000000000000000000000000000000028152600401612cdb939291906148d4565b6020604051808303816000875af1158015612cfa573d6000803e3d6000fd5b505050506040513d601f19601f82011682018060405250810190612d1e9190614419565b612d5d576040517f08c379a0000000000000000000000000000000000000000000000000000000008152600401612d5490614984565b60405180910390fd5b600160046000828254612d709190614014565b925050819055505095945050505050565b6000808490506000868511612ea95760208511612e4b5760006001866020612da991906145d5565b6008612db5919061464a565b6002612dc19190614ad7565b612dcb91906145d5565b19600102905060008186511690506000878a8a612de89190614014565b612df291906145d5565b905060008386511690505b828114612e3d57818610612e24578a8a612e179190614014565b9650505050505050612eba565b8580612e2f90614099565b965050838651169050612dfd565b859650505050505050612eba565b60008585209050600091505b8588612e6391906145d5565b8211612ea7576000868420905080821415612e845783945050505050612eba565b600184612e919190614014565b9350508180612e9f90614099565b925050612e57565b505b8686612eb59190614014565b925050505b949350505050565b612eca613535565b6000612ee88560000151866020015186600001518760200151612d81565b90508460200151836020018181525050846020015181612f0891906145d5565b83600001818152505084600001518560200151612f259190614014565b811415612f3c576000856000018181525050612f82565b83600001518360000151612f509190614014565b85600001818151612f6191906145d5565b91508181525050836000015181612f789190614014565b8560200181815250505b829150509392505050565b5b60208110612fcc5781518352602083612fa79190614014565b9250602082612fb69190614014565b9150602081612fc591906145d5565b9050612f8e565b60006001826020612fdd91906145d5565b610100612fea9190614ad7565b612ff491906145d5565b90508019835116818551168181178652505050505050565b61301461354f565b60006020836130239190614573565b1461304f576020826130359190614573565b602061304191906145d5565b8261304c9190614014565b91505b81836020018181525050604051808452600081528281016020016040525082905092915050565b601781116130a6576130a08160058460ff169060020a0260ff1617846131ec90919063ffffffff16565b506131c5565b60ff81116130eb576130ce601860058460ff169060020a0217846131ec90919063ffffffff16565b506130e58160018561320c9092919063ffffffff16565b506131c4565b61ffff811161313157613114601960058460ff169060020a0217846131ec90919063ffffffff16565b5061312b8160028561320c9092919063ffffffff16565b506131c3565b63ffffffff81116131795761315c601a60058460ff169060020a0217846131ec90919063ffffffff16565b506131738160048561320c9092919063ffffffff16565b506131c2565b67ffffffffffffffff81116131c1576131a8601b60058460ff169060020a0217846131ec90919063ffffffff16565b506131bf8160088561320c9092919063ffffffff16565b505b5b5b5b5b505050565b6131d261354f565b6131e48384600001515184855161322e565b905092915050565b6131f461354f565b613204838460000151518461331d565b905092915050565b61321461354f565b613225848560000151518585613374565b90509392505050565b61323661354f565b825182111561324457600080fd5b846020015182856132559190614014565b111561328a5761328985600261327a886020015188876132759190614014565b613402565b613284919061464a565b61341e565b5b6000808651805187602083010193508088870111156132a95787860182525b60208701925050505b602084106132f057805182526020826132cb9190614014565b91506020816132da9190614014565b90506020846132e991906145d5565b93506132b2565b60006001856020036101000a03905080198251168184511681811785525050508692505050949350505050565b61332561354f565b8360200151831061334b5761334a8460028660200151613345919061464a565b61341e565b5b8351805160208583010184815381861415613367576001820183525b5050508390509392505050565b61337c61354f565b8460200151848361338d9190614014565b11156133b5576133b485600286856133a59190614014565b6133af919061464a565b61341e565b5b60006001836101006133c79190614ad7565b6133d191906145d5565b905085518386820101858319825116178152815185880111156133f45784870182525b505085915050949350505050565b60008183111561341457829050613418565b8190505b92915050565b600082600001519050613431838361300c565b5061343c83826131ca565b50505050565b82805461344e90613d48565b90600052602060002090601f01602090048101928261347057600085556134b7565b82601f1061348957805160ff19168380011785556134b7565b828001600101855582156134b7579182015b828111156134b657825182559160200191906001019061349b565b5b5090506134c49190613569565b5090565b6040518060a0016040528060008019168152602001600073ffffffffffffffffffffffffffffffffffffffff16815260200160007bffffffffffffffffffffffffffffffffffffffffffffffffffffffff191681526020016000815260200161352f61354f565b81525090565b604051806040016040528060008152602001600081525090565b604051806040016040528060608152602001600081525090565b5b8082111561358257600081600090555060010161356a565b5090565b6000604051905090565b600080fd5b600080fd5b6000819050919050565b6135ad8161359a565b81146135b857600080fd5b50565b6000813590506135ca816135a4565b92915050565b6000602082840312156135e6576135e5613590565b5b60006135f4848285016135bb565b91505092915050565b6000819050919050565b613610816135fd565b82525050565b600060208201905061362b6000830184613607565b92915050565b600081519050919050565b600082825260208201905092915050565b60005b8381101561366b578082015181840152602081019050613650565b8381111561367a576000848401525b50505050565b6000601f19601f8301169050919050565b600061369c82613631565b6136a6818561363c565b93506136b681856020860161364d565b6136bf81613680565b840191505092915050565b6136d38161359a565b82525050565b600060808201905081810360008301526136f38187613691565b905081810360208301526137078186613691565b9050818103604083015261371b8185613691565b905061372a60608301846136ca565b95945050505050565b600080fd5b600080fd5b7f4e487b7100000000000000000000000000000000000000000000000000000000600052604160045260246000fd5b61377582613680565b810181811067ffffffffffffffff821117156137945761379361373d565b5b80604052505050565b60006137a7613586565b90506137b3828261376c565b919050565b600067ffffffffffffffff8211156137d3576137d261373d565b5b6137dc82613680565b9050602081019050919050565b82818337600083830152505050565b600061380b613806846137b8565b61379d565b90508281526020810184848401111561382757613826613738565b5b6138328482856137e9565b509392505050565b600082601f83011261384f5761384e613733565b5b813561385f8482602086016137f8565b91505092915050565b60006020828403121561387e5761387d613590565b5b600082013567ffffffffffffffff81111561389c5761389b613595565b5b6138a88482850161383a565b91505092915050565b600080600080600060a086880312156138cd576138cc613590565b5b60006138db888289016135bb565b955050602086013567ffffffffffffffff8111156138fc576138fb613595565b5b6139088882890161383a565b945050604086013567ffffffffffffffff81111561392957613928613595565b5b6139358882890161383a565b935050606086013567ffffffffffffffff81111561395657613955613595565b5b6139628882890161383a565b9250506080613973888289016135bb565b9150509295509295909350565b6000604082019050818103600083015261399a8185613691565b90506139a960208301846136ca565b9392505050565b6139b9816135fd565b81146139c457600080fd5b50565b6000813590506139d6816139b0565b92915050565b600080604083850312156139f3576139f2613590565b5b6000613a01858286016139c7565b9250506020613a12858286016139c7565b9150509250929050565b600060a082019050613a3160008301886136ca565b8181036020830152613a438187613691565b90508181036040830152613a578186613691565b90508181036060830152613a6b8185613691565b9050613a7a60808301846136ca565b9695505050505050565b6000606082019050613a9960008301866136ca565b8181036020830152613aab8185613691565b9050613aba60408301846136ca565b949350505050565b600081519050919050565b600082825260208201905092915050565b6000819050602082019050919050565b613af78161359a565b82525050565b6000613b098383613aee565b60208301905092915050565b6000602082019050919050565b6000613b2d82613ac2565b613b378185613acd565b9350613b4283613ade565b8060005b83811015613b73578151613b5a8882613afd565b9750613b6583613b15565b925050600181019050613b46565b5085935050505092915050565b60006020820190508181036000830152613b9a8184613b22565b905092915050565b60008060408385031215613bb957613bb8613590565b5b6000613bc7858286016135bb565b9250506020613bd8858286016135bb565b9150509250929050565b60008115159050919050565b613bf781613be2565b82525050565b6000602082019050613c126000830184613bee565b92915050565b600080600060608486031215613c3157613c30613590565b5b6000613c3f868287016135bb565b935050602084013567ffffffffffffffff811115613c6057613c5f613595565b5b613c6c8682870161383a565b9250506040613c7d868287016135bb565b9150509250925092565b7f6f6e6c794f776e65723a2063616c6c6572206973206e6f742074686520636f6e60008201527f7472616374206f776e6572000000000000000000000000000000000000000000602082015250565b6000613ce3602b8361363c565b9150613cee82613c87565b604082019050919050565b60006020820190508181036000830152613d1281613cd6565b9050919050565b7f4e487b7100000000000000000000000000000000000000000000000000000000600052602260045260246000fd5b60006002820490506001821680613d6057607f821691505b60208210811415613d7457613d73613d19565b5b50919050565b600081905092915050565b60008190508160005260206000209050919050565b60008154613da781613d48565b613db18186613d7a565b94506001821660008114613dcc5760018114613ddd57613e10565b60ff19831686528186019350613e10565b613de685613d85565b60005b83811015613e0857815481890152600182019150602081019050613de9565b838801955050505b50505092915050565b6000613e2482613631565b613e2e8185613d7a565b9350613e3e81856020860161364d565b80840191505092915050565b6000613e568286613d9a565b9150613e628285613e19565b9150613e6e8284613e19565b9150819050949350505050565b7f726163654578697374733a207261636520616c72656164792065786973747300600082015250565b6000613eb1601f8361363c565b9150613ebc82613e7b565b602082019050919050565b60006020820190508181036000830152613ee081613ea4565b9050919050565b7f726163654578697374733a207261636520646f6573206e6f7420657869730000600082015250565b6000613f1d601e8361363c565b9150613f2882613ee7565b602082019050919050565b60006020820190508181036000830152613f4c81613f10565b9050919050565b7f616c6c6f776564416464726573733a2063616c6c6572206973206e6f7420616c60008201527f6c6f776564000000000000000000000000000000000000000000000000000000602082015250565b6000613faf60258361363c565b9150613fba82613f53565b604082019050919050565b60006020820190508181036000830152613fde81613fa2565b9050919050565b7f4e487b7100000000000000000000000000000000000000000000000000000000600052601160045260246000fd5b600061401f8261359a565b915061402a8361359a565b9250827fffffffffffffffffffffffffffffffffffffffffffffffffffffffffffffffff0382111561405f5761405e613fe5565b5b828201905092915050565b7f4e487b7100000000000000000000000000000000000000000000000000000000600052603260045260246000fd5b60006140a48261359a565b91507fffffffffffffffffffffffffffffffffffffffffffffffffffffffffffffffff8214156140d7576140d6613fe5565b5b600182019050919050565b7f736574486f72736546726f6d4353563a206c656e7468206f662074686520696e60008201527f666f726d6174696f6e20726574726965766564206e6f742076616c6964000000602082015250565b600061413e603d8361363c565b9150614149826140e2565b604082019050919050565b6000602082019050818103600083015261416d81614131565b9050919050565b7f686f7273654578697374733a20686f72736520616c726561647920657869737460008201527f7300000000000000000000000000000000000000000000000000000000000000602082015250565b60006141d060218361363c565b91506141db82614174565b604082019050919050565b600060208201905081810360008301526141ff816141c3565b9050919050565b7f686f7273654578697374733a20686f72736520646f6573206e6f742065786973600082015250565b600061423c60208361363c565b915061424782614206565b602082019050919050565b6000602082019050818103600083015261426b8161422f565b9050919050565b7f536f75726365206d75737420626520746865206f7261636c65206f662074686560008201527f2072657175657374000000000000000000000000000000000000000000000000602082015250565b60006142ce60288361363c565b91506142d982614272565b604082019050919050565b600060208201905081810360008301526142fd816142c1565b9050919050565b6000602082019050818103600083015261431e8184613691565b905092915050565b600073ffffffffffffffffffffffffffffffffffffffff82169050919050565b600061435182614326565b9050919050565b61436181614346565b82525050565b600060208201905061437c6000830184614358565b92915050565b600081519050614391816135a4565b92915050565b6000602082840312156143ad576143ac613590565b5b60006143bb84828501614382565b91505092915050565b60006040820190506143d96000830185614358565b6143e660208301846136ca565b9392505050565b6143f681613be2565b811461440157600080fd5b50565b600081519050614413816143ed565b92915050565b60006020828403121561442f5761442e613590565b5b600061443d84828501614404565b91505092915050565b7f556e61626c6520746f207472616e736665720000000000000000000000000000600082015250565b600061447c60128361363c565b915061448782614446565b602082019050919050565b600060208201905081810360008301526144ab8161446f565b9050919050565b7f77696e73486176654368616e6765643a2077696e7320646f206e6f74206d617460008201527f6368000000000000000000000000000000000000000000000000000000000000602082015250565b600061450e60228361363c565b9150614519826144b2565b604082019050919050565b6000602082019050818103600083015261453d81614501565b9050919050565b7f4e487b7100000000000000000000000000000000000000000000000000000000600052601260045260246000fd5b600061457e8261359a565b91506145898361359a565b92508261459957614598614544565b5b828206905092915050565b60006145af8261359a565b91506145ba8361359a565b9250826145ca576145c9614544565b5b828204905092915050565b60006145e08261359a565b91506145eb8361359a565b9250828210156145fe576145fd613fe5565b5b828203905092915050565b600060ff82169050919050565b600061462182614609565b915061462c83614609565b92508282101561463f5761463e613fe5565b5b828203905092915050565b60006146558261359a565b91506146608361359a565b9250817fffffffffffffffffffffffffffffffffffffffffffffffffffffffffffffffff048311821515161561469957614698613fe5565b5b828202905092915050565b60006146af82614609565b915060ff8214156146c3576146c2613fe5565b5b600182019050919050565b6000819050919050565b60006146f36146ee6146e984614326565b6146ce565b614326565b9050919050565b6000614705826146d8565b9050919050565b6000614717826146fa565b9050919050565b60006c0100000000000000000000000082029050919050565b60006147428261471e565b9050919050565b600061475482614737565b9050919050565b61476c6147678261470c565b614749565b82525050565b6000819050919050565b61478d6147888261359a565b614772565b82525050565b600061479f828561475b565b6014820191506147af828461477c565b6020820191508190509392505050565b60007fffffffff0000000000000000000000000000000000000000000000000000000082169050919050565b6147f4816147bf565b82525050565b600081519050919050565b600082825260208201905092915050565b6000614821826147fa565b61482b8185614805565b935061483b81856020860161364d565b61484481613680565b840191505092915050565b600061010082019050614865600083018b614358565b614872602083018a6136ca565b61487f6040830189613607565b61488c6060830188614358565b61489960808301876147eb565b6148a660a08301866136ca565b6148b360c08301856136ca565b81810360e08301526148c58184614816565b90509998505050505050505050565b60006060820190506148e96000830186614358565b6148f660208301856136ca565b81810360408301526149088184614816565b9050949350505050565b7f756e61626c6520746f207472616e73666572416e6443616c6c20746f206f726160008201527f636c650000000000000000000000000000000000000000000000000000000000602082015250565b600061496e60238361363c565b915061497982614912565b604082019050919050565b6000602082019050818103600083015261499d81614961565b9050919050565b6000600282049050919050565b6000808291508390505b60018511156149fb578086048111156149d7576149d6613fe5565b5b60018516156149e65780820291505b80810290506149f4856149a4565b94506149bb565b94509492505050565b600082614a145760019050614ad0565b81614a225760009050614ad0565b8160018114614a385760028114614a4257614a71565b6001915050614ad0565b60ff841115614a5457614a53613fe5565b5b8360020a915084821115614a6b57614a6a613fe5565b5b50614ad0565b5060208310610133831016604e8410600b8410161715614aa65782820a905083811115614aa157614aa0613fe5565b5b614ad0565b614ab384848460016149b1565b92509050818404811115614aca57614ac9613fe5565b5b81810290505b9392505050565b6000614ae28261359a565b9150614aed8361359a565b9250614b1a7fffffffffffffffffffffffffffffffffffffffffffffffffffffffffffffffff8484614a04565b90509291505056fea26469706673582212203c8c18ac15c73e58cdcc18cc275456c94ca261b9008ec744143f08704c1cd7e464736f6c634300080a003368747470733a2f2f6768646261646d696e2e6d657461747572662e636f6d2f726573742f726573745f776562332e7068703f7265736f757263653d676574486f727365446174612669643d68747470733a2f2f6768646261646d696e2e6d657461747572662e636f6d2f726573742f726573745f776562332e7068703f7265736f757263653d67657477696e6e65722669643d",
  "immutableReferences": {},
  "source": "// SPDX-License-Identifier: MIT\npragma solidity ^0.8.7;\n\nimport \"@chainlink/contracts/src/v0.8/ChainlinkClient.sol\";\nimport \"./strings.sol\";\n\n/// @title Library with structs to store Horse and Race data\n/// @author Daniel Molina\n/// @custom:experimental This is an experimental contract.\nlibrary MetaturfStructs {\n\n    struct Horse {\n        uint256 horseid;\n        string name;\n        uint256 wins;\n    }\n \n    struct Race {\n        uint256 raceid;\n        string racecourse;\n        string date;\n        string time;\n        uint256 winnerhorseid;\n    }    \n}\n\n/// @title Contract to store Spanish horse racing data from a Chainlink oracle\n/// @author Daniel Molina\ncontract MetaturfHorseRacingData is ChainlinkClient {\n\n    using Chainlink for Chainlink.Request;\n    using strings for *;\n\n    address private owner;\n\n    using Chainlink for Chainlink.Request;\n    \n    string raceWinnerRequest;\n    string horseDataRequest;\n\n    /// @dev Address of the oracle contract.\n    address private oracle;\n    bytes32 private jobId;\n    uint256 private fee;\n \n    mapping (uint => MetaturfStructs.Race) public races;\n    mapping (uint => MetaturfStructs.Horse) public horses;\n \n    /// @dev lists to be able to loop horses and races stored on-chain\n    /// @dev following https://medium.com/@blockchain101/looping-in-solidity-32c621e05c22\n    uint256[] private horseList;\n    uint256[] private raceList;\n\n    event LogFulfillRaceWinner(string winner);\n\n    event LogFulfillHorseData(string horsedata);\n\n    event LogSetHorse(uint256 horseid, string name, uint256 wins);\n\n    event LogSetRace(uint256 raceid, string racecourse, string date, string time, uint256 winnerhorseid);\n    \n    /// @dev validates the contract owner\n    modifier onlyOwner() {\n      require (msg.sender == owner, \"onlyOwner: caller is not the contract owner\");\n      _;\n    }\n\n    /// @dev validates the allowed addresses: contract owner and oracle contract\n    modifier allowedAddress() {\n      require ( (msg.sender == owner) || (msg.sender == oracle),\n        \"allowedAddress: caller is not allowed\");\n      _;\n    }\n\n    /// @dev validates that a horse exists or not, depending on the needs of the function\n    /// @param _horseid ID of the horse\n    /// @param _exist Boolean stating wether the horse ID should exist or not\n    modifier horseExists(uint256 _horseid, bool _exist)   {\n        if(!_exist) {\n          require (horses[_horseid].horseid == 0, \"horseExists: horse already exists\");\n        } else {\n          require (horses[_horseid].horseid != 0, \"horseExists: horse does not exis\");  \n        }\n        _;\n    }\n\n    /// @dev validates that a race exists or not, depending on the needs of the function\n    /// @param _raceid ID of the race\n    /// @param _exist Boolean stating wether the race ID should exist or not\n    modifier raceExists(uint _raceid, bool _exist)   {\n        if(!_exist) {\n          require (races[_raceid].raceid == 0, \"raceExists: race already exists\");\n        } else {\n          require (races[_raceid].raceid != 0, \"raceExists: race does not exis\");  \n        }\n        _;\n    }\n\n    /// @dev validates that the races winned by a horse have changed\n    /// @param _horseid ID of the horse\n    /// @param _wins number of wins to check   \n    modifier winsHaveChanged(uint256 _horseid, uint256 _wins) {\n        require (horses[_horseid].wins < _wins, \"winsHaveChanged: wins do not match\");\n        _;\n    }\n\n    /// @notice Contract constructor\n    /// @dev defaults the contract to the Chainlink parameters: oracle address, jobid and fee\n    /// @dev initial owner is construct\n    /// @dev sets the API requests for the orache (horse and race data)\n    constructor() {\n        owner = msg.sender;\n        setPublicChainlinkToken();\n        oracle = 0x9dD3298DAd96648E7fdF5632b9813D22Bbb3eb61;\n        jobId = \"9daa7f5130ab4439a63dee42a15d119a\"; //Correcto\n        fee = 1 * 10 ** 18; // 1 LINK\n        \n        //lastRacesRequest = \"https://ghdbadmin.metaturf.com/rest/rest_web3.php?resource=listraces&id=1&date=20210619&format=json\";\n        raceWinnerRequest = \"https://ghdbadmin.metaturf.com/rest/rest_web3.php?resource=getwinner&id=\";\n        horseDataRequest = \"https://ghdbadmin.metaturf.com/rest/rest_web3.php?resource=getHorseData&id=\";\n    }\n\n    /// @notice Request the winner of a race to the oracle.\n    /// @dev We own the oracle node in a test environment that needs to be active.\n    /// @dev Example of response format:\n    /// @dev {\n    /// @dev   \"code\":1,\n    /// @dev   \"status\":200,\n    /// @dev   \"data\":{\n    /// @dev     \"winner\":\"13882,GALILODGE (FR),1\"\n    /// @dev   }\n    /// @dev }\n    /// @param _raceid ID of the race\n    /// @return requestId ID provided by the oracle\n    function requestOracleRaceWinner(uint _raceid) public onlyOwner returns (bytes32 requestId) {\n\n        Chainlink.Request memory request = buildChainlinkRequest(jobId, address(this), this.fulfillRaceWinner.selector);\n       \n        string memory raceid = uintToString(_raceid);\n        string memory format = \"&format=json\";\n       \n        // Set the URL to perform the GET request on\n        string memory requestb = string(abi.encodePacked(raceWinnerRequest, raceid, format));\n        request.add(\"get\", requestb);\n \n        request.add(\"path\", \"data.winner\");\n        \n        // Sends the request\n        return sendChainlinkRequestTo(oracle, request, fee);\n    }\n\n    /// @notice Fulfillment function that receives the horse winner in the form of bytes32\n    /// @dev this function is called by the oracle contract when data is available\n    /// @param _requestId ID of the previous request sent\n    /// @param _winner data retrieved from the oracle\n    function fulfillRaceWinner(bytes32 _requestId, bytes32 _winner) public allowedAddress recordChainlinkFulfillment(_requestId) {\n\n        string memory csvhorsedata = bytes32ToString(_winner);\n        setHorseFromCSV(csvhorsedata);\n        \n        emit LogFulfillRaceWinner(csvhorsedata);\n\n        return;\n    }\n\n    /// @notice Request the data of a horse to the oracle.\n    /// @dev We own the oracle node in a test environment that needs to be active.\n    /// @dev Example of response format:\n    /// @dev {\n    /// @dev   \"code\":1,\"status\":200,\n    /// @dev   \"data\": {\n    /// @dev     \"name\":\"CASILDA (SPA)\",\n    /// @dev     \"sex\":\"Y\",\n    /// @dev     \"birthdate\":\"2019-01-01\",\n    /// @dev     \"debutant\":\"false\",\n    /// @dev     \"national\":\"true\",\n    /// @dev     \"prizes\":38400,\n    /// @dev     \"wins\":2\n    /// @dev   }\n    /// @dev }\n    /// @param _horseid ID of the horse\n    /// @return requestId ID provided by the oracle\n    function requestOracleHorseData(uint _horseid) public onlyOwner returns (bytes32 requestId) {\n\n        Chainlink.Request memory request = buildChainlinkRequest(jobId, address(this), this.fulfillHorseData.selector);\n       \n        string memory horseid = uintToString(_horseid);\n        string memory format = \"&format=json\";\n       \n        // Set the URL to perform the GET request on\n        string memory requestb = string(abi.encodePacked(horseDataRequest, horseid, format));\n        request.add(\"get\", requestb);        \n\n        request.add(\"path\", \"data\");\n        \n        // Sends the request\n        return sendChainlinkRequestTo(oracle, request, fee);\n    }\n    \n    /// @notice Fulfillment function that receives the horse data in the form of bytes32\n    /// @dev this function is called by the oracle contract when data is available\n    /// @param _requestId ID of the previous request sent\n    /// @param _horsedata data retrieved from the oracle\n    function fulfillHorseData(bytes32 _requestId, bytes32 _horsedata) public allowedAddress recordChainlinkFulfillment(_requestId) {\n\n        string memory horsedata = bytes32ToString(_horsedata);\n\n        setHorseFromCSV(horsedata);\n\n        emit LogFulfillHorseData(horsedata);\n    \n        return;\n    } \n    \n    /// @notice Withdraw LINK from this contract\n    function withdrawLink() external onlyOwner {\n        LinkTokenInterface linkToken = LinkTokenInterface(chainlinkTokenAddress());\n        require(linkToken.transfer(msg.sender, linkToken.balanceOf(address(this))), \"Unable to transfer\");\n    }\n\n    /// @notice Checks if a horse is already stored in the contract\n    /// @param _horseid ID of the horse to check\n    /// @return bool true if the horse exists\n    function theHorseExists(uint256 _horseid) public view returns(bool) {\n        if(horses[_horseid].horseid == 0) return false;\n        return true;\n    }\n\n    /// @notice Inputs a new horse info in the contract.\n    /// @dev only the contract owner can call this function\n    /// @param _horseid horse ID\n    /// @param _name horse name\n    /// @param _wins number of wins\n    function setHorse(uint _horseid, string memory _name, uint _wins) public onlyOwner horseExists(_horseid, false) {\n \n        horseList.push(_horseid);\n\n        horses[_horseid] = MetaturfStructs.Horse({\n            horseid: _horseid,\n            name: _name,\n            wins: _wins\n        });\n        emit LogSetHorse(_horseid, _name, _wins);\n    }\n\n    /// @notice Inputs a new horse info in the contract from a CSV. \n    /// @dev only the contract owner and the oracle can call this function\n    /// @dev example format: \"13882,GALILODGE (FR),1\";\n    /// @param _csvhorsedata CSV data\n    function setHorseFromCSV(string memory _csvhorsedata) public allowedAddress {\n\n        strings.slice memory s = _csvhorsedata.toSlice();\n        strings.slice memory delim = \",\".toSlice();\n        string[] memory parts = new string[](s.count(delim) + 1);\n        for(uint i = 0; i < parts.length; i++) {\n            parts[i] = s.split(delim).toString();\n        }\n\n        require(parts.length == 3, \"setHorseFromCSV: lenth of the information retrieved not valid\");\n\n        uint256 horseid = stringToUint(parts[0]);\n\n        //If the horse does not exist, we create it\n        if (horses[horseid].horseid == 0) {\n\n            horseList.push(horseid);\n\n            horses[horseid] = MetaturfStructs.Horse({\n                horseid: horseid,\n                name: parts[1],\n                wins: stringToUint(parts[2])\n            });\n\n        } else {\n\n            if (horses[horseid].wins != stringToUint(parts[2])) {\n                horses[horseid].wins = stringToUint(parts[2]);\n            }\n        }\n        emit LogSetHorse(horseid, parts[1], stringToUint(parts[2]));\n    }\n    \n    /// @notice Given a horse ID, get the name and number of wins. \n    /// @param _horseid CSV data\n    /// @return memory horse name\n    /// @return uint number of wins\n    function getHorse(uint256 _horseid) public view horseExists(_horseid, true) returns (string memory, uint) {\n        return (\n            horses[_horseid].name,\n            horses[_horseid].wins\n        );\n    }\n\n    /// @notice Get the list of horses stored on-chain. \n    /// @return uint[] horse list\n    function listHorses() public view returns(uint256[] memory) {\n        return horseList;\n    }\n\n    /// @notice Update wins. \n    /// @dev the horse must exist and the number of wins need to be greater than stored\n    /// @param _horseid CSV data\n    /// @param _wins number of wins to store\n    function updateHorseWins(uint256 _horseid, uint256 _wins) public onlyOwner horseExists(_horseid, true) winsHaveChanged(_horseid, _wins) {\n        horses[_horseid].wins = _wins;\n    }\n    \n    /// @notice Inputs a new race info in the contract. \n    /// @dev the race must not exist\n    /// @dev the winner horse must exist\n    /// @dev Currently it is not used;\n    /// @param _raceid race ID\n    /// @param _racecourse racecourse name\n    /// @param _date race date\n    /// @param _time time of the winner\n    /// @param _winnerhorseid winner horse ID\n    function setRace(\n        uint256 _raceid,\n        string memory _racecourse,\n        string memory _date,\n        string memory _time,\n        uint256 _winnerhorseid\n    ) \n        public onlyOwner horseExists(_winnerhorseid, true) raceExists(_raceid, false)\n    {\n        \n        raceList.push(_raceid);\n\n        races[_raceid] = MetaturfStructs.Race({\n            raceid: _raceid,\n            racecourse: _racecourse,\n            date: _date,\n            time: _time,\n            winnerhorseid: _winnerhorseid\n        });\n        emit LogSetRace(_raceid, _racecourse, _date, _time, _winnerhorseid);\n    }\n    \n    /// @notice Given a horse ID, get the name and number of wins. \n    /// @param _raceid CSV data\n    /// @return memory racecourse name\n    /// @return memory race date\n    /// @return memory time of the winner\n    /// @return uint256 winner horse ID\n    function getRace(uint256 _raceid) public view raceExists(_raceid, true) returns (string memory, string memory, string memory, uint256) {\n        return (\n            races[_raceid].racecourse,\n            races[_raceid].date,\n            races[_raceid].time,\n            races[_raceid].winnerhorseid\n        );\n    }\n\n    /// @notice Get the list of races stored on-chain. \n    /// @return uint[] race list\n    function listRaces() public view returns(uint256[] memory) {\n        return raceList;\n    }\n\n    /// @dev string helper functions\n    function bytes32ToString(bytes32 _bytes32) internal pure returns (string memory) {\n        uint8 i = 0;\n        while(i < 32 && _bytes32[i] != 0) {\n            i++;\n        }\n        bytes memory bytesArray = new bytes(i);\n        for (i = 0; i < 32 && _bytes32[i] != 0; i++) {\n            bytesArray[i] = _bytes32[i];\n        }\n        return string(bytesArray);\n    }\n    \n    //https://ethereum.stackexchange.com/questions/10811/solidity-concatenate-uint-into-a-string\n    function uintToString(uint v) internal pure returns (string memory) {\n        uint maxlength = 100;\n        bytes memory reversed = new bytes(maxlength);\n        uint i = 0;\n        while (v != 0) {\n            uint remainder = v % 10;\n            v = v / 10;\n            reversed[i++] = bytes1(uint8(48 + remainder));\n        }\n        bytes memory s = new bytes(i);\n        for (uint j = 0; j < i; j++) {\n            s[j] = reversed[i - 1 - j];\n        }\n        return string(s);\n    }\n    \n    //https://ethereum.stackexchange.com/questions/10811/solidity-concatenate-uint-into-a-string\n    function appendUintToString(string memory inStr, uint v) internal pure returns (string memory) {\n        uint maxlength = 100;\n        bytes memory reversed = new bytes(maxlength);\n        uint i = 0;\n        while (v != 0) {\n            uint remainder = v % 10;\n            v = v / 10;\n            reversed[i++] = bytes1(uint8(48 + remainder));\n        }\n        bytes memory inStrb = bytes(inStr);\n        bytes memory s = new bytes(inStrb.length + i);\n        uint j;\n        for (j = 0; j < inStrb.length; j++) {\n            s[j] = inStrb[j];\n        }\n        for (j = 0; j < i; j++) {\n            s[j + inStrb.length] = reversed[i - 1 - j];\n        }\n        return string(s);\n    }\n   \n    //https://ethereum.stackexchange.com/questions/10932/how-to-convert-string-to-int \n    function stringToUint(string memory s) internal pure returns (uint) {\n        bytes memory b = bytes(s);\n        uint result = 0;\n        for (uint i = 0; i < b.length; i++) { // c = b[i] was not needed\n            if (uint8(b[i]) >= 48 && uint8(b[i]) <= 57) {\n                result = result * 10 + (uint8(b[i]) - 48); // bytes and int are not compatible with the operator -.\n            }\n        }\n        return result; // this was missing\n    }\n}\n",
  "sourcePath": "/Users/dmolina/Consensys/blockchain-developer-bootcamp-final-project/contracts/MetaturfHorseRacingData.sol",
  "compiler": {
    "name": "solc",
    "version": "0.8.10+commit.fc410830.Emscripten.clang"
  },
  "schemaVersion": "3.4.3",
  "updatedAt": "2021-11-18T08:13:56.931Z",
  "devdoc": {
    "author": "Daniel Molina",
    "kind": "dev",
    "methods": {
      "constructor": {
        "details": "defaults the contract to the Chainlink parameters: oracle address, jobid and feeinitial owner is constructsets the API requests for the orache (horse and race data)"
      },
      "fulfillHorseData(bytes32,bytes32)": {
        "details": "this function is called by the oracle contract when data is available",
        "params": {
          "_horsedata": "data retrieved from the oracle",
          "_requestId": "ID of the previous request sent"
        }
      },
      "fulfillRaceWinner(bytes32,bytes32)": {
        "details": "this function is called by the oracle contract when data is available",
        "params": {
          "_requestId": "ID of the previous request sent",
          "_winner": "data retrieved from the oracle"
        }
      },
      "getHorse(uint256)": {
        "params": {
          "_horseid": "CSV data"
        },
        "returns": {
          "_0": "memory horse name",
          "_1": "uint number of wins"
        }
      },
      "getRace(uint256)": {
        "params": {
          "_raceid": "CSV data"
        },
        "returns": {
          "_0": "memory racecourse name",
          "_1": "memory race date",
          "_2": "memory time of the winner",
          "_3": "uint256 winner horse ID"
        }
      },
      "listHorses()": {
        "returns": {
          "_0": "uint[] horse list"
        }
      },
      "listRaces()": {
        "returns": {
          "_0": "uint[] race list"
        }
      },
      "requestOracleHorseData(uint256)": {
        "details": "We own the oracle node in a test environment that needs to be active.Example of response format:{\"code\":1,\"status\":200,\"data\": {\"name\":\"CASILDA (SPA)\",\"sex\":\"Y\",\"birthdate\":\"2019-01-01\",\"debutant\":\"false\",\"national\":\"true\",\"prizes\":38400,\"wins\":2}}",
        "params": {
          "_horseid": "ID of the horse"
        },
        "returns": {
          "requestId": "ID provided by the oracle"
        }
      },
      "requestOracleRaceWinner(uint256)": {
        "details": "We own the oracle node in a test environment that needs to be active.Example of response format:{\"code\":1,\"status\":200,\"data\":{\"winner\":\"13882,GALILODGE (FR),1\"}}",
        "params": {
          "_raceid": "ID of the race"
        },
        "returns": {
          "requestId": "ID provided by the oracle"
        }
      },
      "setHorse(uint256,string,uint256)": {
        "details": "only the contract owner can call this function",
        "params": {
          "_horseid": "horse ID",
          "_name": "horse name",
          "_wins": "number of wins"
        }
      },
      "setHorseFromCSV(string)": {
        "details": "only the contract owner and the oracle can call this functionexample format: \"13882,GALILODGE (FR),1\";",
        "params": {
          "_csvhorsedata": "CSV data"
        }
      },
      "setRace(uint256,string,string,string,uint256)": {
        "details": "the race must not existthe winner horse must existCurrently it is not used;",
        "params": {
          "_date": "race date",
          "_racecourse": "racecourse name",
          "_raceid": "race ID",
          "_time": "time of the winner",
          "_winnerhorseid": "winner horse ID"
        }
      },
      "theHorseExists(uint256)": {
        "params": {
          "_horseid": "ID of the horse to check"
        },
        "returns": {
          "_0": "bool true if the horse exists"
        }
      },
      "updateHorseWins(uint256,uint256)": {
        "details": "the horse must exist and the number of wins need to be greater than stored",
        "params": {
          "_horseid": "CSV data",
          "_wins": "number of wins to store"
        }
      }
    },
    "stateVariables": {
      "horseList": {
        "details": "lists to be able to loop horses and races stored on-chainfollowing https://medium.com/@blockchain101/looping-in-solidity-32c621e05c22"
      },
      "oracle": {
        "details": "Address of the oracle contract."
      }
    },
    "title": "Contract to store Spanish horse racing data from a Chainlink oracle",
    "version": 1
  },
  "userdoc": {
    "kind": "user",
    "methods": {
      "constructor": {
        "notice": "Contract constructor"
      },
      "fulfillHorseData(bytes32,bytes32)": {
        "notice": "Fulfillment function that receives the horse data in the form of bytes32"
      },
      "fulfillRaceWinner(bytes32,bytes32)": {
        "notice": "Fulfillment function that receives the horse winner in the form of bytes32"
      },
      "getHorse(uint256)": {
        "notice": "Given a horse ID, get the name and number of wins. "
      },
      "getRace(uint256)": {
        "notice": "Given a horse ID, get the name and number of wins. "
      },
      "listHorses()": {
        "notice": "Get the list of horses stored on-chain. "
      },
      "listRaces()": {
        "notice": "Get the list of races stored on-chain. "
      },
      "requestOracleHorseData(uint256)": {
        "notice": "Request the data of a horse to the oracle."
      },
      "requestOracleRaceWinner(uint256)": {
        "notice": "Request the winner of a race to the oracle."
      },
      "setHorse(uint256,string,uint256)": {
        "notice": "Inputs a new horse info in the contract."
      },
      "setHorseFromCSV(string)": {
        "notice": "Inputs a new horse info in the contract from a CSV. "
      },
      "setRace(uint256,string,string,string,uint256)": {
        "notice": "Inputs a new race info in the contract. "
      },
      "theHorseExists(uint256)": {
        "notice": "Checks if a horse is already stored in the contract"
      },
      "updateHorseWins(uint256,uint256)": {
        "notice": "Update wins. "
      },
      "withdrawLink()": {
        "notice": "Withdraw LINK from this contract"
      }
    },
    "version": 1
  }
}