{
  "contractName": "MetaturfNFT",
  "abi": [
    {
      "inputs": [],
      "stateMutability": "nonpayable",
      "type": "constructor"
    },
    {
      "anonymous": false,
      "inputs": [
        {
          "indexed": true,
          "internalType": "address",
          "name": "owner",
          "type": "address"
        },
        {
          "indexed": true,
          "internalType": "address",
          "name": "approved",
          "type": "address"
        },
        {
          "indexed": true,
          "internalType": "uint256",
          "name": "tokenId",
          "type": "uint256"
        }
      ],
      "name": "Approval",
      "type": "event"
    },
    {
      "anonymous": false,
      "inputs": [
        {
          "indexed": true,
          "internalType": "address",
          "name": "owner",
          "type": "address"
        },
        {
          "indexed": true,
          "internalType": "address",
          "name": "operator",
          "type": "address"
        },
        {
          "indexed": false,
          "internalType": "bool",
          "name": "approved",
          "type": "bool"
        }
      ],
      "name": "ApprovalForAll",
      "type": "event"
    },
    {
      "anonymous": false,
      "inputs": [
        {
          "indexed": false,
          "internalType": "uint256",
          "name": "horseid",
          "type": "uint256"
        }
      ],
      "name": "LogMint",
      "type": "event"
    },
    {
      "anonymous": false,
      "inputs": [
        {
          "indexed": true,
          "internalType": "address",
          "name": "from",
          "type": "address"
        },
        {
          "indexed": true,
          "internalType": "address",
          "name": "to",
          "type": "address"
        },
        {
          "indexed": true,
          "internalType": "uint256",
          "name": "tokenId",
          "type": "uint256"
        }
      ],
      "name": "Transfer",
      "type": "event"
    },
    {
      "inputs": [
        {
          "internalType": "address",
          "name": "to",
          "type": "address"
        },
        {
          "internalType": "uint256",
          "name": "tokenId",
          "type": "uint256"
        }
      ],
      "name": "approve",
      "outputs": [],
      "stateMutability": "nonpayable",
      "type": "function"
    },
    {
      "inputs": [
        {
          "internalType": "address",
          "name": "owner",
          "type": "address"
        }
      ],
      "name": "balanceOf",
      "outputs": [
        {
          "internalType": "uint256",
          "name": "",
          "type": "uint256"
        }
      ],
      "stateMutability": "view",
      "type": "function"
    },
    {
      "inputs": [
        {
          "internalType": "uint256",
          "name": "tokenId",
          "type": "uint256"
        }
      ],
      "name": "getApproved",
      "outputs": [
        {
          "internalType": "address",
          "name": "",
          "type": "address"
        }
      ],
      "stateMutability": "view",
      "type": "function"
    },
    {
      "inputs": [
        {
          "internalType": "address",
          "name": "owner",
          "type": "address"
        },
        {
          "internalType": "address",
          "name": "operator",
          "type": "address"
        }
      ],
      "name": "isApprovedForAll",
      "outputs": [
        {
          "internalType": "bool",
          "name": "",
          "type": "bool"
        }
      ],
      "stateMutability": "view",
      "type": "function"
    },
    {
      "inputs": [],
      "name": "metaturfHorseRacingData",
      "outputs": [
        {
          "internalType": "contract MetaturfHorseRacingData",
          "name": "",
          "type": "address"
        }
      ],
      "stateMutability": "view",
      "type": "function"
    },
    {
      "inputs": [],
      "name": "name",
      "outputs": [
        {
          "internalType": "string",
          "name": "",
          "type": "string"
        }
      ],
      "stateMutability": "view",
      "type": "function"
    },
    {
      "inputs": [
        {
          "internalType": "uint256",
          "name": "tokenId",
          "type": "uint256"
        }
      ],
      "name": "ownerOf",
      "outputs": [
        {
          "internalType": "address",
          "name": "",
          "type": "address"
        }
      ],
      "stateMutability": "view",
      "type": "function"
    },
    {
      "inputs": [
        {
          "internalType": "address",
          "name": "from",
          "type": "address"
        },
        {
          "internalType": "address",
          "name": "to",
          "type": "address"
        },
        {
          "internalType": "uint256",
          "name": "tokenId",
          "type": "uint256"
        }
      ],
      "name": "safeTransferFrom",
      "outputs": [],
      "stateMutability": "nonpayable",
      "type": "function"
    },
    {
      "inputs": [
        {
          "internalType": "address",
          "name": "from",
          "type": "address"
        },
        {
          "internalType": "address",
          "name": "to",
          "type": "address"
        },
        {
          "internalType": "uint256",
          "name": "tokenId",
          "type": "uint256"
        },
        {
          "internalType": "bytes",
          "name": "_data",
          "type": "bytes"
        }
      ],
      "name": "safeTransferFrom",
      "outputs": [],
      "stateMutability": "nonpayable",
      "type": "function"
    },
    {
      "inputs": [
        {
          "internalType": "address",
          "name": "operator",
          "type": "address"
        },
        {
          "internalType": "bool",
          "name": "approved",
          "type": "bool"
        }
      ],
      "name": "setApprovalForAll",
      "outputs": [],
      "stateMutability": "nonpayable",
      "type": "function"
    },
    {
      "inputs": [
        {
          "internalType": "bytes4",
          "name": "interfaceId",
          "type": "bytes4"
        }
      ],
      "name": "supportsInterface",
      "outputs": [
        {
          "internalType": "bool",
          "name": "",
          "type": "bool"
        }
      ],
      "stateMutability": "view",
      "type": "function"
    },
    {
      "inputs": [],
      "name": "symbol",
      "outputs": [
        {
          "internalType": "string",
          "name": "",
          "type": "string"
        }
      ],
      "stateMutability": "view",
      "type": "function"
    },
    {
      "inputs": [
        {
          "internalType": "address",
          "name": "from",
          "type": "address"
        },
        {
          "internalType": "address",
          "name": "to",
          "type": "address"
        },
        {
          "internalType": "uint256",
          "name": "tokenId",
          "type": "uint256"
        }
      ],
      "name": "transferFrom",
      "outputs": [],
      "stateMutability": "nonpayable",
      "type": "function"
    },
    {
      "inputs": [
        {
          "internalType": "address",
          "name": "_addressOfMetaturfHorseRacingData",
          "type": "address"
        }
      ],
      "name": "registerMetaturfHorseRacingDataAddress",
      "outputs": [],
      "stateMutability": "nonpayable",
      "type": "function"
    },
    {
      "inputs": [],
      "name": "isSetMetaturfHorseRacingDataAddress",
      "outputs": [
        {
          "internalType": "bool",
          "name": "",
          "type": "bool"
        }
      ],
      "stateMutability": "view",
      "type": "function"
    },
    {
      "inputs": [],
      "name": "listTokens",
      "outputs": [
        {
          "internalType": "uint256[]",
          "name": "",
          "type": "uint256[]"
        }
      ],
      "stateMutability": "view",
      "type": "function"
    },
    {
      "inputs": [],
      "name": "getNumberOfTokens",
      "outputs": [
        {
          "internalType": "uint256",
          "name": "",
          "type": "uint256"
        }
      ],
      "stateMutability": "view",
      "type": "function"
    },
    {
      "inputs": [
        {
          "internalType": "uint256",
          "name": "_horsetokenid",
          "type": "uint256"
        }
      ],
      "name": "getHorseNFTInfo",
      "outputs": [
        {
          "internalType": "uint256",
          "name": "",
          "type": "uint256"
        },
        {
          "internalType": "string",
          "name": "",
          "type": "string"
        }
      ],
      "stateMutability": "view",
      "type": "function"
    },
    {
      "inputs": [
        {
          "internalType": "uint256",
          "name": "_horseid",
          "type": "uint256"
        }
      ],
      "name": "horseIsMinted",
      "outputs": [
        {
          "internalType": "bool",
          "name": "",
          "type": "bool"
        }
      ],
      "stateMutability": "view",
      "type": "function"
    },
    {
      "inputs": [
        {
          "internalType": "uint256",
          "name": "_horseid",
          "type": "uint256"
        },
        {
          "internalType": "address",
          "name": "_to",
          "type": "address"
        }
      ],
      "name": "mint",
      "outputs": [
        {
          "internalType": "uint256",
          "name": "",
          "type": "uint256"
        }
      ],
      "stateMutability": "nonpayable",
      "type": "function"
    },
    {
      "inputs": [
        {
          "internalType": "uint256",
          "name": "_tokenId",
          "type": "uint256"
        }
      ],
      "name": "tokenURI",
      "outputs": [
        {
          "internalType": "string",
          "name": "",
          "type": "string"
        }
      ],
      "stateMutability": "view",
      "type": "function"
    }
  ],
  "bytecode": "0x60806040523480156200001157600080fd5b506040518060400160405280600881526020017f4d657461747572660000000000000000000000000000000000000000000000008152506040518060400160405280600281526020017f4d54000000000000000000000000000000000000000000000000000000000000815250816000908051906020019062000096929190620000f9565b508060019080519060200190620000af929190620000f9565b50505033600860006101000a81548173ffffffffffffffffffffffffffffffffffffffff021916908373ffffffffffffffffffffffffffffffffffffffff1602179055506200020e565b8280546200010790620001d8565b90600052602060002090601f0160209004810192826200012b576000855562000177565b82601f106200014657805160ff191683800117855562000177565b8280016001018555821562000177579182015b828111156200017657825182559160200191906001019062000159565b5b5090506200018691906200018a565b5090565b5b80821115620001a55760008160009055506001016200018b565b5090565b7f4e487b7100000000000000000000000000000000000000000000000000000000600052602260045260246000fd5b60006002820490506001821680620001f157607f821691505b60208210811415620002085762000207620001a9565b5b50919050565b6147a6806200021e6000396000f3fe608060405234801561001057600080fd5b5060043610610154576000357c0100000000000000000000000000000000000000000000000000000000900480638bd9e3e6116100d5578063b88d4fde11610099578063b88d4fde1461037d578063bcc6465514610399578063c87b56dd146103ca578063e985e9c5146103fa578063efeecb511461042a578063f0673c691461044857610154565b80638bd9e3e6146102d957806394bf804d146102f557806395d89b4114610325578063a22cb46514610343578063b47856931461035f57610154565b806342842e0e1161011c57806342842e0e1461020f5780636352211e1461022b57806370a082311461025b5780637488ff761461028b57806389955ff4146102a957610154565b806301ffc9a71461015957806306fdde0314610189578063081812fc146101a7578063095ea7b3146101d757806323b872dd146101f3575b600080fd5b610173600480360381019061016e9190612532565b610466565b604051610180919061257a565b60405180910390f35b610191610548565b60405161019e919061262e565b60405180910390f35b6101c160048036038101906101bc9190612686565b6105da565b6040516101ce91906126f4565b60405180910390f35b6101f160048036038101906101ec919061273b565b61065f565b005b61020d6004803603810190610208919061277b565b610777565b005b6102296004803603810190610224919061277b565b6107d7565b005b61024560048036038101906102409190612686565b6107f7565b60405161025291906126f4565b60405180910390f35b610275600480360381019061027091906127ce565b6108a9565b604051610282919061280a565b60405180910390f35b610293610961565b6040516102a091906128e3565b60405180910390f35b6102c360048036038101906102be9190612686565b6109b9565b6040516102d0919061257a565b60405180910390f35b6102f360048036038101906102ee91906127ce565b6109e9565b005b61030f600480360381019061030a9190612905565b610abd565b60405161031c919061280a565b60405180910390f35b61032d610df5565b60405161033a919061262e565b60405180910390f35b61035d60048036038101906103589190612971565b610e87565b005b610367611008565b6040516103749190612a10565b60405180910390f35b61039760048036038101906103929190612b60565b61102e565b005b6103b360048036038101906103ae9190612686565b611090565b6040516103c1929190612be3565b60405180910390f35b6103e460048036038101906103df9190612686565b611156565b6040516103f1919061262e565b60405180910390f35b610414600480360381019061040f9190612c13565b6117fd565b604051610421919061257a565b60405180910390f35b610432611891565b60405161043f919061280a565b60405180910390f35b6104506118a2565b60405161045d919061257a565b60405180910390f35b60007f80ac58cd000000000000000000000000000000000000000000000000000000007bffffffffffffffffffffffffffffffffffffffffffffffffffffffff1916827bffffffffffffffffffffffffffffffffffffffffffffffffffffffff1916148061053157507f5b5e139f000000000000000000000000000000000000000000000000000000007bffffffffffffffffffffffffffffffffffffffffffffffffffffffff1916827bffffffffffffffffffffffffffffffffffffffffffffffffffffffff1916145b8061054157506105408261190b565b5b9050919050565b60606000805461055790612c82565b80601f016020809104026020016040519081016040528092919081815260200182805461058390612c82565b80156105d05780601f106105a5576101008083540402835291602001916105d0565b820191906000526020600020905b8154815290600101906020018083116105b357829003601f168201915b5050505050905090565b60006105e582611975565b610624576040517f08c379a000000000000000000000000000000000000000000000000000000000815260040161061b90612d26565b60405180910390fd5b6004600083815260200190815260200160002060009054906101000a900473ffffffffffffffffffffffffffffffffffffffff169050919050565b600061066a826107f7565b90508073ffffffffffffffffffffffffffffffffffffffff168373ffffffffffffffffffffffffffffffffffffffff1614156106db576040517f08c379a00000000000000000000000000000000000000000000000000000000081526004016106d290612db8565b60405180910390fd5b8073ffffffffffffffffffffffffffffffffffffffff166106fa6119e1565b73ffffffffffffffffffffffffffffffffffffffff1614806107295750610728816107236119e1565b6117fd565b5b610768576040517f08c379a000000000000000000000000000000000000000000000000000000000815260040161075f90612e4a565b60405180910390fd5b61077283836119e9565b505050565b6107886107826119e1565b82611aa2565b6107c7576040517f08c379a00000000000000000000000000000000000000000000000000000000081526004016107be90612edc565b60405180910390fd5b6107d2838383611b80565b505050565b6107f28383836040518060200160405280600081525061102e565b505050565b6000806002600084815260200190815260200160002060009054906101000a900473ffffffffffffffffffffffffffffffffffffffff169050600073ffffffffffffffffffffffffffffffffffffffff168173ffffffffffffffffffffffffffffffffffffffff1614156108a0576040517f08c379a000000000000000000000000000000000000000000000000000000000815260040161089790612f6e565b60405180910390fd5b80915050919050565b60008073ffffffffffffffffffffffffffffffffffffffff168273ffffffffffffffffffffffffffffffffffffffff16141561091a576040517f08c379a000000000000000000000000000000000000000000000000000000000815260040161091190613000565b60405180910390fd5b600360008373ffffffffffffffffffffffffffffffffffffffff1673ffffffffffffffffffffffffffffffffffffffff168152602001908152602001600020549050919050565b6060600b8054806020026020016040519081016040528092919081815260200182805480156109af57602002820191906000526020600020905b81548152602001906001019080831161099b575b5050505050905090565b600080600a60008481526020019081526020016000205414156109df57600090506109e4565b600190505b919050565b600860009054906101000a900473ffffffffffffffffffffffffffffffffffffffff1673ffffffffffffffffffffffffffffffffffffffff163373ffffffffffffffffffffffffffffffffffffffff1614610a79576040517f08c379a0000000000000000000000000000000000000000000000000000000008152600401610a7090613092565b60405180910390fd5b80600760006101000a81548173ffffffffffffffffffffffffffffffffffffffff021916908373ffffffffffffffffffffffffffffffffffffffff16021790555050565b60008073ffffffffffffffffffffffffffffffffffffffff168273ffffffffffffffffffffffffffffffffffffffff161415610b2e576040517f08c379a0000000000000000000000000000000000000000000000000000000008152600401610b25906130fe565b60405180910390fd5b610b37836109b9565b15610b77576040517f08c379a0000000000000000000000000000000000000000000000000000000008152600401610b6e90613190565b60405180910390fd5b6000600a60008581526020019081526020016000205414610bcd576040517f08c379a0000000000000000000000000000000000000000000000000000000008152600401610bc4906131fc565b60405180910390fd5b600760009054906101000a900473ffffffffffffffffffffffffffffffffffffffff1673ffffffffffffffffffffffffffffffffffffffff1663e82ed9b4846040518263ffffffff167c0100000000000000000000000000000000000000000000000000000000028152600401610c44919061280a565b602060405180830381865afa158015610c61573d6000803e3d6000fd5b505050506040513d601f19601f82011682018060405250810190610c859190613231565b610cc4576040517f08c379a0000000000000000000000000000000000000000000000000000000008152600401610cbb906132aa565b60405180910390fd5b610cce6006611ddc565b6000610cda6006611df2565b905060405180606001604052808581526020018473ffffffffffffffffffffffffffffffffffffffff16815260200160405180602001604052806000815250815250600960008381526020019081526020016000206000820151816000015560208201518160010160006101000a81548173ffffffffffffffffffffffffffffffffffffffff021916908373ffffffffffffffffffffffffffffffffffffffff1602179055506040820151816002019080519060200190610d9c9291906123fb565b50905050600b81908060018154018082558091505060019003906000526020600020016000909190919091505580600a600086815260200190815260200160002081905550610deb8382611e00565b8091505092915050565b606060018054610e0490612c82565b80601f0160208091040260200160405190810160405280929190818152602001828054610e3090612c82565b8015610e7d5780601f10610e5257610100808354040283529160200191610e7d565b820191906000526020600020905b815481529060010190602001808311610e6057829003601f168201915b5050505050905090565b610e8f6119e1565b73ffffffffffffffffffffffffffffffffffffffff168273ffffffffffffffffffffffffffffffffffffffff161415610efd576040517f08c379a0000000000000000000000000000000000000000000000000000000008152600401610ef490613316565b60405180910390fd5b8060056000610f0a6119e1565b73ffffffffffffffffffffffffffffffffffffffff1673ffffffffffffffffffffffffffffffffffffffff16815260200190815260200160002060008473ffffffffffffffffffffffffffffffffffffffff1673ffffffffffffffffffffffffffffffffffffffff16815260200190815260200160002060006101000a81548160ff0219169083151502179055508173ffffffffffffffffffffffffffffffffffffffff16610fb76119e1565b73ffffffffffffffffffffffffffffffffffffffff167f17307eab39ab6107e8899845ad3d59bd9653f200f220920489ca2b5937696c3183604051610ffc919061257a565b60405180910390a35050565b600760009054906101000a900473ffffffffffffffffffffffffffffffffffffffff1681565b61103f6110396119e1565b83611aa2565b61107e576040517f08c379a000000000000000000000000000000000000000000000000000000000815260040161107590612edc565b60405180910390fd5b61108a84848484611e1e565b50505050565b600060606009600084815260200190815260200160002060000154600960008581526020019081526020016000206002018080546110cd90612c82565b80601f01602080910402602001604051908101604052809291908181526020018280546110f990612c82565b80156111465780601f1061111b57610100808354040283529160200191611146565b820191906000526020600020905b81548152906001019060200180831161112957829003601f168201915b5050505050905091509150915091565b606060006009600084815260200190815260200160002060000154905060606000600760009054906101000a900473ffffffffffffffffffffffffffffffffffffffff1673ffffffffffffffffffffffffffffffffffffffff16634f57641c846040518263ffffffff167c01000000000000000000000000000000000000000000000000000000000281526004016111ee919061280a565b600060405180830381865afa15801561120b573d6000803e3d6000fd5b505050506040513d6000823e3d601f19601f8201168201806040525081019061123491906133ec565b8092508193505050611244612481565b6040518060e0016040528060bb81526020016146b660bb91398160006011811061127157611270613448565b5b6020020181905250604051806101a001604052806101738152602001613fe66101739139816001601181106112a9576112a8613448565b5b60200201819052506040518061018001604052806101518152602001613d226101519139816002601181106112e1576112e0613448565b5b60200201819052506040518061020001604052806101cb81526020016144eb6101cb91398160036011811061131957611318613448565b5b602002018190525060405180610280016040528061024c815260200161429f61024c91398160046011811061135157611350613448565b5b60200201819052506040518061018001604052806101458152602001613e7361014591398160056011811061138957611388613448565b5b602002018190525060405180610180016040528061014681526020016141596101469139816006601181106113c1576113c0613448565b5b60200201819052506040518061020001604052806101c18152602001613b2c6101c19139816007601181106113f9576113f8613448565b5b6020020181905250604051806060016040528060398152602001613af3603991398160086011811061142e5761142d613448565b5b6020020181905250828160096011811061144b5761144a613448565b5b60200201819052506040518060600160405280602e8152602001613fb8602e913981600a601181106114805761147f613448565b5b602002018190525061149186611e7a565b81600b601181106114a5576114a4613448565b5b60200201819052506040518060400160405280600281526020017f202800000000000000000000000000000000000000000000000000000000000081525081600c601181106114f7576114f6613448565b5b602002018190525061150884611e7a565b81600d6011811061151c5761151b613448565b5b6020020181905250604051806060016040528060358152602001613ced6035913981600e6011811061155157611550613448565b5b602002018190525061156282611e7a565b81600f6011811061157657611575613448565b5b60200201819052506040518060400160405280600d81526020017f3c2f746578743e3c2f7376673e00000000000000000000000000000000000000815250816010601181106115c8576115c7613448565b5b60200201819052506000816000601181106115e6576115e5613448565b5b6020020151826001601181106115ff576115fe613448565b5b60200201518360026011811061161857611617613448565b5b60200201518460036011811061163157611630613448565b5b60200201518560046011811061164a57611649613448565b5b60200201518660056011811061166357611662613448565b5b60200201518760066011811061167c5761167b613448565b5b60200201518860076011811061169557611694613448565b5b60200201516040516020016116b19897969594939291906134b3565b604051602081830303815290604052905080826008601181106116d7576116d6613448565b5b6020020151836009601181106116f0576116ef613448565b5b602002015184600a6011811061170957611708613448565b5b602002015185600b6011811061172257611721613448565b5b602002015186600c6011811061173b5761173a613448565b5b602002015187600d6011811061175457611753613448565b5b602002015160405160200161176f9796959493929190613525565b60405160208183030381529060405290508082600e6011811061179557611794613448565b5b602002015183600f601181106117ae576117ad613448565b5b6020020151846010601181106117c7576117c6613448565b5b60200201516040516020016117df949392919061358a565b60405160208183030381529060405290508095505050505050919050565b6000600560008473ffffffffffffffffffffffffffffffffffffffff1673ffffffffffffffffffffffffffffffffffffffff16815260200190815260200160002060008373ffffffffffffffffffffffffffffffffffffffff1673ffffffffffffffffffffffffffffffffffffffff16815260200190815260200160002060009054906101000a900460ff16905092915050565b600061189d6006611df2565b905090565b60008073ffffffffffffffffffffffffffffffffffffffff16600760009054906101000a900473ffffffffffffffffffffffffffffffffffffffff1673ffffffffffffffffffffffffffffffffffffffff1614156119035760009050611908565b600190505b90565b60007f01ffc9a7000000000000000000000000000000000000000000000000000000007bffffffffffffffffffffffffffffffffffffffffffffffffffffffff1916827bffffffffffffffffffffffffffffffffffffffffffffffffffffffff1916149050919050565b60008073ffffffffffffffffffffffffffffffffffffffff166002600084815260200190815260200160002060009054906101000a900473ffffffffffffffffffffffffffffffffffffffff1673ffffffffffffffffffffffffffffffffffffffff1614159050919050565b600033905090565b816004600083815260200190815260200160002060006101000a81548173ffffffffffffffffffffffffffffffffffffffff021916908373ffffffffffffffffffffffffffffffffffffffff160217905550808273ffffffffffffffffffffffffffffffffffffffff16611a5c836107f7565b73ffffffffffffffffffffffffffffffffffffffff167f8c5be1e5ebec7d5bd14f71427d1e84f3dd0314c0f7b2291e5b200ac8c7c3b92560405160405180910390a45050565b6000611aad82611975565b611aec576040517f08c379a0000000000000000000000000000000000000000000000000000000008152600401611ae39061363a565b60405180910390fd5b6000611af7836107f7565b90508073ffffffffffffffffffffffffffffffffffffffff168473ffffffffffffffffffffffffffffffffffffffff161480611b6657508373ffffffffffffffffffffffffffffffffffffffff16611b4e846105da565b73ffffffffffffffffffffffffffffffffffffffff16145b80611b775750611b7681856117fd565b5b91505092915050565b8273ffffffffffffffffffffffffffffffffffffffff16611ba0826107f7565b73ffffffffffffffffffffffffffffffffffffffff1614611bf6576040517f08c379a0000000000000000000000000000000000000000000000000000000008152600401611bed906136cc565b60405180910390fd5b600073ffffffffffffffffffffffffffffffffffffffff168273ffffffffffffffffffffffffffffffffffffffff161415611c66576040517f08c379a0000000000000000000000000000000000000000000000000000000008152600401611c5d9061375e565b60405180910390fd5b611c71838383611ffa565b611c7c6000826119e9565b6001600360008573ffffffffffffffffffffffffffffffffffffffff1673ffffffffffffffffffffffffffffffffffffffff1681526020019081526020016000206000828254611ccc91906137ad565b925050819055506001600360008473ffffffffffffffffffffffffffffffffffffffff1673ffffffffffffffffffffffffffffffffffffffff1681526020019081526020016000206000828254611d2391906137e1565b92505081905550816002600083815260200190815260200160002060006101000a81548173ffffffffffffffffffffffffffffffffffffffff021916908373ffffffffffffffffffffffffffffffffffffffff160217905550808273ffffffffffffffffffffffffffffffffffffffff168473ffffffffffffffffffffffffffffffffffffffff167fddf252ad1be2c89b69c2b068fc378daa952ba7f163c4a11628f55a4df523b3ef60405160405180910390a4505050565b6001816000016000828254019250508190555050565b600081600001549050919050565b611e1a828260405180602001604052806000815250611fff565b5050565b611e29848484611b80565b611e358484848461205a565b611e74576040517f08c379a0000000000000000000000000000000000000000000000000000000008152600401611e6b906138a9565b60405180910390fd5b50505050565b60606000821415611ec2576040518060400160405280600181526020017f30000000000000000000000000000000000000000000000000000000000000008152509050611ff5565b600082905060005b60008214611ef4578080611edd906138c9565b915050600a82611eed9190613941565b9150611eca565b60008167ffffffffffffffff811115611f1057611f0f612a35565b5b6040519080825280601f01601f191660200182016040528015611f425781602001600182028036833780820191505090505b5090505b60008514611fee57600182611f5b91906137ad565b9150600a85611f6a9190613972565b6030611f7691906137e1565b7f010000000000000000000000000000000000000000000000000000000000000002818381518110611fab57611faa613448565b5b60200101907effffffffffffffffffffffffffffffffffffffffffffffffffffffffffffff1916908160001a905350600a85611fe79190613941565b9450611f46565b8093505050505b919050565b505050565b612009838361221a565b612016600084848461205a565b612055576040517f08c379a000000000000000000000000000000000000000000000000000000000815260040161204c906138a9565b60405180910390fd5b505050565b600061207b8473ffffffffffffffffffffffffffffffffffffffff166123e8565b1561220d578373ffffffffffffffffffffffffffffffffffffffff1663150b7a026120a46119e1565b8786866040518563ffffffff167c01000000000000000000000000000000000000000000000000000000000281526004016120e294939291906139f8565b6020604051808303816000875af192505050801561211e57506040513d601f19601f8201168201806040525081019061211b9190613a59565b60015b6121a1573d806000811461214e576040519150601f19603f3d011682016040523d82523d6000602084013e612153565b606091505b50600081511415612199576040517f08c379a0000000000000000000000000000000000000000000000000000000008152600401612190906138a9565b60405180910390fd5b805181602001fd5b63150b7a027c0100000000000000000000000000000000000000000000000000000000027bffffffffffffffffffffffffffffffffffffffffffffffffffffffff1916817bffffffffffffffffffffffffffffffffffffffffffffffffffffffff191614915050612212565b600190505b949350505050565b600073ffffffffffffffffffffffffffffffffffffffff168273ffffffffffffffffffffffffffffffffffffffff16141561228a576040517f08c379a0000000000000000000000000000000000000000000000000000000008152600401612281906130fe565b60405180910390fd5b61229381611975565b156122d3576040517f08c379a00000000000000000000000000000000000000000000000000000000081526004016122ca90613ad2565b60405180910390fd5b6122df60008383611ffa565b6001600360008473ffffffffffffffffffffffffffffffffffffffff1673ffffffffffffffffffffffffffffffffffffffff168152602001908152602001600020600082825461232f91906137e1565b92505081905550816002600083815260200190815260200160002060006101000a81548173ffffffffffffffffffffffffffffffffffffffff021916908373ffffffffffffffffffffffffffffffffffffffff160217905550808273ffffffffffffffffffffffffffffffffffffffff16600073ffffffffffffffffffffffffffffffffffffffff167fddf252ad1be2c89b69c2b068fc378daa952ba7f163c4a11628f55a4df523b3ef60405160405180910390a45050565b600080823b905060008111915050919050565b82805461240790612c82565b90600052602060002090601f0160209004810192826124295760008555612470565b82601f1061244257805160ff1916838001178555612470565b82800160010185558215612470579182015b8281111561246f578251825591602001919060010190612454565b5b50905061247d91906124a9565b5090565b6040518061022001604052806011905b60608152602001906001900390816124915790505090565b5b808211156124c25760008160009055506001016124aa565b5090565b6000604051905090565b600080fd5b600080fd5b60007fffffffff0000000000000000000000000000000000000000000000000000000082169050919050565b61250f816124da565b811461251a57600080fd5b50565b60008135905061252c81612506565b92915050565b600060208284031215612548576125476124d0565b5b60006125568482850161251d565b91505092915050565b60008115159050919050565b6125748161255f565b82525050565b600060208201905061258f600083018461256b565b92915050565b600081519050919050565b600082825260208201905092915050565b60005b838110156125cf5780820151818401526020810190506125b4565b838111156125de576000848401525b50505050565b6000601f19601f8301169050919050565b600061260082612595565b61260a81856125a0565b935061261a8185602086016125b1565b612623816125e4565b840191505092915050565b6000602082019050818103600083015261264881846125f5565b905092915050565b6000819050919050565b61266381612650565b811461266e57600080fd5b50565b6000813590506126808161265a565b92915050565b60006020828403121561269c5761269b6124d0565b5b60006126aa84828501612671565b91505092915050565b600073ffffffffffffffffffffffffffffffffffffffff82169050919050565b60006126de826126b3565b9050919050565b6126ee816126d3565b82525050565b600060208201905061270960008301846126e5565b92915050565b612718816126d3565b811461272357600080fd5b50565b6000813590506127358161270f565b92915050565b60008060408385031215612752576127516124d0565b5b600061276085828601612726565b925050602061277185828601612671565b9150509250929050565b600080600060608486031215612794576127936124d0565b5b60006127a286828701612726565b93505060206127b386828701612726565b92505060406127c486828701612671565b9150509250925092565b6000602082840312156127e4576127e36124d0565b5b60006127f284828501612726565b91505092915050565b61280481612650565b82525050565b600060208201905061281f60008301846127fb565b92915050565b600081519050919050565b600082825260208201905092915050565b6000819050602082019050919050565b61285a81612650565b82525050565b600061286c8383612851565b60208301905092915050565b6000602082019050919050565b600061289082612825565b61289a8185612830565b93506128a583612841565b8060005b838110156128d65781516128bd8882612860565b97506128c883612878565b9250506001810190506128a9565b5085935050505092915050565b600060208201905081810360008301526128fd8184612885565b905092915050565b6000806040838503121561291c5761291b6124d0565b5b600061292a85828601612671565b925050602061293b85828601612726565b9150509250929050565b61294e8161255f565b811461295957600080fd5b50565b60008135905061296b81612945565b92915050565b60008060408385031215612988576129876124d0565b5b600061299685828601612726565b92505060206129a78582860161295c565b9150509250929050565b6000819050919050565b60006129d66129d16129cc846126b3565b6129b1565b6126b3565b9050919050565b60006129e8826129bb565b9050919050565b60006129fa826129dd565b9050919050565b612a0a816129ef565b82525050565b6000602082019050612a256000830184612a01565b92915050565b600080fd5b600080fd5b7f4e487b7100000000000000000000000000000000000000000000000000000000600052604160045260246000fd5b612a6d826125e4565b810181811067ffffffffffffffff82111715612a8c57612a8b612a35565b5b80604052505050565b6000612a9f6124c6565b9050612aab8282612a64565b919050565b600067ffffffffffffffff821115612acb57612aca612a35565b5b612ad4826125e4565b9050602081019050919050565b82818337600083830152505050565b6000612b03612afe84612ab0565b612a95565b905082815260208101848484011115612b1f57612b1e612a30565b5b612b2a848285612ae1565b509392505050565b600082601f830112612b4757612b46612a2b565b5b8135612b57848260208601612af0565b91505092915050565b60008060008060808587031215612b7a57612b796124d0565b5b6000612b8887828801612726565b9450506020612b9987828801612726565b9350506040612baa87828801612671565b925050606085013567ffffffffffffffff811115612bcb57612bca6124d5565b5b612bd787828801612b32565b91505092959194509250565b6000604082019050612bf860008301856127fb565b8181036020830152612c0a81846125f5565b90509392505050565b60008060408385031215612c2a57612c296124d0565b5b6000612c3885828601612726565b9250506020612c4985828601612726565b9150509250929050565b7f4e487b7100000000000000000000000000000000000000000000000000000000600052602260045260246000fd5b60006002820490506001821680612c9a57607f821691505b60208210811415612cae57612cad612c53565b5b50919050565b7f4552433732313a20617070726f76656420717565727920666f72206e6f6e657860008201527f697374656e7420746f6b656e0000000000000000000000000000000000000000602082015250565b6000612d10602c836125a0565b9150612d1b82612cb4565b604082019050919050565b60006020820190508181036000830152612d3f81612d03565b9050919050565b7f4552433732313a20617070726f76616c20746f2063757272656e74206f776e6560008201527f7200000000000000000000000000000000000000000000000000000000000000602082015250565b6000612da26021836125a0565b9150612dad82612d46565b604082019050919050565b60006020820190508181036000830152612dd181612d95565b9050919050565b7f4552433732313a20617070726f76652063616c6c6572206973206e6f74206f7760008201527f6e6572206e6f7220617070726f76656420666f7220616c6c0000000000000000602082015250565b6000612e346038836125a0565b9150612e3f82612dd8565b604082019050919050565b60006020820190508181036000830152612e6381612e27565b9050919050565b7f4552433732313a207472616e736665722063616c6c6572206973206e6f74206f60008201527f776e6572206e6f7220617070726f766564000000000000000000000000000000602082015250565b6000612ec66031836125a0565b9150612ed182612e6a565b604082019050919050565b60006020820190508181036000830152612ef581612eb9565b9050919050565b7f4552433732313a206f776e657220717565727920666f72206e6f6e657869737460008201527f656e7420746f6b656e0000000000000000000000000000000000000000000000602082015250565b6000612f586029836125a0565b9150612f6382612efc565b604082019050919050565b60006020820190508181036000830152612f8781612f4b565b9050919050565b7f4552433732313a2062616c616e636520717565727920666f7220746865207a6560008201527f726f206164647265737300000000000000000000000000000000000000000000602082015250565b6000612fea602a836125a0565b9150612ff582612f8e565b604082019050919050565b6000602082019050818103600083015261301981612fdd565b9050919050565b7f6973436f6e74726163744f776e65723a2063616c6c6572206973206e6f74207460008201527f686520636f6e7472616374206f776e6572000000000000000000000000000000602082015250565b600061307c6031836125a0565b915061308782613020565b604082019050919050565b600060208201905081810360008301526130ab8161306f565b9050919050565b7f4552433732313a206d696e7420746f20746865207a65726f2061646472657373600082015250565b60006130e86020836125a0565b91506130f3826130b2565b602082019050919050565b60006020820190508181036000830152613117816130db565b9050919050565b7f4552433732313a20746f6b656e20666f72207468697320686f72736520616c7260008201527f65616479206d696e746564000000000000000000000000000000000000000000602082015250565b600061317a602b836125a0565b91506131858261311e565b604082019050919050565b600060208201905081810360008301526131a98161316d565b9050919050565b7f546f6b656e20616c7265616479206d696e746564000000000000000000000000600082015250565b60006131e66014836125a0565b91506131f1826131b0565b602082019050919050565b60006020820190508181036000830152613215816131d9565b9050919050565b60008151905061322b81612945565b92915050565b600060208284031215613247576132466124d0565b5b60006132558482850161321c565b91505092915050565b7f6d696e743a2074686520686f72736520646f6573206e6f742065786973740000600082015250565b6000613294601e836125a0565b915061329f8261325e565b602082019050919050565b600060208201905081810360008301526132c381613287565b9050919050565b7f4552433732313a20617070726f766520746f2063616c6c657200000000000000600082015250565b60006133006019836125a0565b915061330b826132ca565b602082019050919050565b6000602082019050818103600083015261332f816132f3565b9050919050565b600067ffffffffffffffff82111561335157613350612a35565b5b61335a826125e4565b9050602081019050919050565b600061337a61337584613336565b612a95565b90508281526020810184848401111561339657613395612a30565b5b6133a18482856125b1565b509392505050565b600082601f8301126133be576133bd612a2b565b5b81516133ce848260208601613367565b91505092915050565b6000815190506133e68161265a565b92915050565b60008060408385031215613403576134026124d0565b5b600083015167ffffffffffffffff811115613421576134206124d5565b5b61342d858286016133a9565b925050602061343e858286016133d7565b9150509250929050565b7f4e487b7100000000000000000000000000000000000000000000000000000000600052603260045260246000fd5b600081905092915050565b600061348d82612595565b6134978185613477565b93506134a78185602086016125b1565b80840191505092915050565b60006134bf828b613482565b91506134cb828a613482565b91506134d78289613482565b91506134e38288613482565b91506134ef8287613482565b91506134fb8286613482565b91506135078285613482565b91506135138284613482565b91508190509998505050505050505050565b6000613531828a613482565b915061353d8289613482565b91506135498288613482565b91506135558287613482565b91506135618286613482565b915061356d8285613482565b91506135798284613482565b915081905098975050505050505050565b60006135968287613482565b91506135a28286613482565b91506135ae8285613482565b91506135ba8284613482565b915081905095945050505050565b7f4552433732313a206f70657261746f7220717565727920666f72206e6f6e657860008201527f697374656e7420746f6b656e0000000000000000000000000000000000000000602082015250565b6000613624602c836125a0565b915061362f826135c8565b604082019050919050565b6000602082019050818103600083015261365381613617565b9050919050565b7f4552433732313a207472616e73666572206f6620746f6b656e2074686174206960008201527f73206e6f74206f776e0000000000000000000000000000000000000000000000602082015250565b60006136b66029836125a0565b91506136c18261365a565b604082019050919050565b600060208201905081810360008301526136e5816136a9565b9050919050565b7f4552433732313a207472616e7366657220746f20746865207a65726f2061646460008201527f7265737300000000000000000000000000000000000000000000000000000000602082015250565b60006137486024836125a0565b9150613753826136ec565b604082019050919050565b600060208201905081810360008301526137778161373b565b9050919050565b7f4e487b7100000000000000000000000000000000000000000000000000000000600052601160045260246000fd5b60006137b882612650565b91506137c383612650565b9250828210156137d6576137d561377e565b5b828203905092915050565b60006137ec82612650565b91506137f783612650565b9250827fffffffffffffffffffffffffffffffffffffffffffffffffffffffffffffffff0382111561382c5761382b61377e565b5b828201905092915050565b7f4552433732313a207472616e7366657220746f206e6f6e20455243373231526560008201527f63656976657220696d706c656d656e7465720000000000000000000000000000602082015250565b60006138936032836125a0565b915061389e82613837565b604082019050919050565b600060208201905081810360008301526138c281613886565b9050919050565b60006138d482612650565b91507fffffffffffffffffffffffffffffffffffffffffffffffffffffffffffffffff8214156139075761390661377e565b5b600182019050919050565b7f4e487b7100000000000000000000000000000000000000000000000000000000600052601260045260246000fd5b600061394c82612650565b915061395783612650565b92508261396757613966613912565b5b828204905092915050565b600061397d82612650565b915061398883612650565b92508261399857613997613912565b5b828206905092915050565b600081519050919050565b600082825260208201905092915050565b60006139ca826139a3565b6139d481856139ae565b93506139e48185602086016125b1565b6139ed816125e4565b840191505092915050565b6000608082019050613a0d60008301876126e5565b613a1a60208301866126e5565b613a2760408301856127fb565b8181036060830152613a3981846139bf565b905095945050505050565b600081519050613a5381612506565b92915050565b600060208284031215613a6f57613a6e6124d0565b5b6000613a7d84828501613a44565b91505092915050565b7f4552433732313a20746f6b656e20616c7265616479206d696e74656400000000600082015250565b6000613abc601c836125a0565b9150613ac782613a86565b602082019050919050565b60006020820190508181036000830152613aeb81613aaf565b905091905056fe3c7465787420783d2231302220793d22313132302220666f6e742d7765696768743d22626f6c642220666f6e742d73697a653d2237656d223e2d313436312034202d31353533203231202d31353739203234202d3338203731202d353920313433202d3635203632202d35203632202d3420373920323820353320313033203530202d312035352031353233206c35203134303920323035202d3136382063323530202d32303520373539202d3631312031303439202d38333820323030202d31353620323135202d31363620323335202d3135332031312038203234322031353520353131203332372032373020313731203530302033323120353133203333332031322031312032322033302032322034322030203239202d343120313436202d31343320343130202d343720313231202d31343420333735202d32313720353635202d373320313930202d31353420343031202d31383020343730202d343320313132202d31343520333830202d3339302031303230202d343320313133202d31313320323935202d31353520343035202d343220313130202d31333520333533202d32303520353430202d373120313837202d31363520343336202d32303920353534202d343520313137202d383120323135202d38312032313720302037202d36322032202d313630202d31337a222f3e3c2f673e293c2f746578743e3c7465787420783d223830302220793d22313330302220666f6e742d73697a653d2237656d223e57696e733a203837372033363620393731203835342032382031343320313920323533202d333520343338202d31313820343037202d35313720373036202d39363020373230202d36392032202d3134372030202d313735202d347a222f3e3c706174682066696c6c3d22233242374137382220643d224d3131303630203835373320632d353735202d3835202d31303030202d323038202d31343035202d343038202d333632202d313739202d363832202d343138202d393434202d373036202d323332202d323535202d333839202d343634202d383736202d31313639202d323031202d323931202d343632202d363632202d343931202d363939202d35202d36202d323436203836202d33373720313434202d33353720313630202d36313720333739202d37373220363531202d31313820323037202d31383220343531202d32343020393039202d323920323334202d353420313830203132342033333520323833206c313430203134332037353020313120633130303620313420313131312032322031313731203933206c3236203331202d3238203820632d3338203130202d323134203334202d333934203533202d333930203431202d353139203631202d38323720313235202d333439203732202d343034203835202d343035203933203020352036332039372031343020323035203736203130382032313320333035203330322034333720343430203634372036353020393233203838342031313634203433322034343320393336203731322031363331203837312031383120343120333934203739203339392037312032202d33203433202d313130203931202d32333620323236202d35393920323631202d36393020353635202d31343835203733202d31393020313439202d33393020313730203c2f746578743e3c7465787420783d2231302220793d22313330302220666f6e742d73697a653d2237656d223e233c6d657461646174613e4372656174656420627920706f747261636520312e31352c207772697474656e2062792050657465722053656c696e67657220323030312d323031373c2f6d657461646174613e3c726563742077696474683d223130302522206865696768743d2231303025222066696c6c3d222344454632463122202f3e3c67207472616e73666f726d3d227472616e736c61746528302e3030303030302c3934362e30303030303029207363616c6528302e3130303030302c2d302e3130303030302922207374726f6b653d226e6f6e65223e3c706174682066696c6c3d22233242374137382220643d224d36393835203934353120632d333233202d3533202d363137202d323537202d373634202d353333202d3735202d313338202d313036202d323337202d313231202d333830202d3430202d33383720313939202d38303920353534202d39383220313832202d383820333434202d31323320353330202d31313320343930203235202d343435203231202d353520313135202d33303220323130202d353530203935202d32343720313835202d34383420323030202d353235203136202d3431203635202d31363920313039202d323833203434202d313135203737202d323135203734202d323234202d37202d3138202d313638202d313236202d343439202d333031202d313532202d3935202d323139202d313332202d323432202d313332202d33372030203339202d3539202d3131303720383539202d35373320343539202d38393720373132202d39333220373238202d3636203330202d313038203236202d313538202d3138202d3339202d3335202d3539202d3836202d3530202d3132382039202d3434203733202d31313020323038202d323138203637202d353320313532202d31323120313839202d313531206c3637202d35342033202d31353532206333202d313236203232202d323331203339202d323332203337202d36202d35202d3631202d323731202d3538202d3237372033202d33203231202d39203432202d3132203231202d3320313533202d323520323933202d353020363839202d3132332031323339202d3139322031383432202d32333220323438202d313720323432202d313520333831202d31313820323133202d31353920343234202d3234352031303137202d34313320343233202d31323020353330202d31363520363735202d32383220313232202d393820323231202d32353420323139202d333434202d36202d313538202d323035202d353139202d343238202d373734202d363237202d373134202d31313635202d31333131202d31343939202d31363632202d323631202d323734202d323836202d333032202d333138202d333635206c2d3230202d333820333820372063323120332036352031352039382032362037372032352034393620323438203837352034363620313632203933203433352032343920363035203334372033393820323239203536322033333920373635203531342036303420353232203933392031303132203130343020313532302034342032323520313820333937202d393320363136202d363420313234202d31353820323531202d33313620343233202d3637203732202d31323120313332202d3131392031333220322030203438203920313033203230203539332031313520313031352032343520313336302034313720313631203831203139342039392033323520313836203135322031303120333437202d31303120343539202d363020313432202d31343520323332202d32363120323737202d3730203237202d323239203332202d333038203130202d313235202d3335202d323638202d313339202d333537202d323539202d323036202d323739202d323134202d363131202d3236202d31303932203638202d31373520323332202d34363920333636202d36353920333232202d34353520393133202d3738302031353938202d383830206c313136202d3137202d3834202d383020632d333430202d333232202d31303932202d363037202d31383738202d373133202d323634202d3336202d323334202d3338202d333330203330202d31373120313233202d33363020323238202d35393020333239202d32373520313231202d39303020333533202d3130333020333831202d313339203331202d333634203333202d3435342036202d313438202d3436202d323530202d313236202d333431202d323636202d313134202d313736202d313530202d333530202d313030202d3439332038202d3233203133202d3433203132202d3435202d3130202d3130202d383532203836202d3131363720313333202d343039203631202d353231203738202d37323520313133203c7376672076657273696f6e3d22312e302220786d6c6e733d22687474703a2f2f7777772e77332e6f72672f323030302f737667222066696c6c3d2223313732353241222077696474683d223132382e303030303030707422206865696768743d223133342e363030303030307074222076696577426f783d2230203020313238302e30303030303020313334362e30303030303022207072657365727665417370656374526174696f3d22784d6964594d6964206d656574223ea26469706673582212202640420a4fa4068cf7bd506a47eda16b68a904913c88f538576f0c611955d7c664736f6c634300080a0033",
  "immutableReferences": {},
  "source": "// SPDX-License-Identifier: MIT\npragma solidity ^0.8.7;\n\nimport \"@openzeppelin/contracts/token/ERC721/ERC721.sol\";\nimport \"@openzeppelin/contracts/utils/Counters.sol\";\nimport \"./MetaturfHorseRacingData.sol\";\nimport \"./Base64.sol\";\n\n/// @title Contract to mint NFTs 100% on-chain\n/// @notice inspired in generative NFTs and Loot project [https://www.lootproject.com]\n/// @author Daniel Molina\n/// @custom:experimental Experimental contract based on [https://docs.openzeppelin.com/contracts/3.x/erc721]\ncontract MetaturfNFT is ERC721 {\n\n    using Counters for Counters.Counter;\n\n    Counters.Counter private _horseTokenIds;\n \n    MetaturfHorseRacingData public metaturfHorseRacingData;\n\n    address private owner; \n \n    struct HorseToken {\n        uint horseid;\n        address owner;\n        string tokenURI;\n    }\n\n    mapping (uint256 => HorseToken) horseToken;\n\n    mapping (uint256 => uint256) horseidToTokenid;\n\n    uint256[] private tokenList;\n\n    /// @dev LogMint event: horseid arg\n    event LogMint(uint horseid);\n\n    modifier isContractOwner() {\n      require (msg.sender == owner, \"isContractOwner: caller is not the contract owner\");\n      _;\n    }\n   \n    modifier isTokenOwner(uint _horseTokenId) {\n      require (msg.sender == horseToken[_horseTokenId].owner, \"isTokenOwner: caller is not the token owner\");\n      _;\n    }\n    \n    /// @notice Contract constructor\n    /// @dev defaults to the token name and token symbol\n    /// @dev initial owner is construct\n    constructor() ERC721(\"Metaturf\", \"MT\") {\n        owner = msg.sender;\n    }\n    \n    /// @notice Sets the address of the contract containing the on-chain data needed for the tokens \n    /// @param _addressOfMetaturfHorseRacingData address of contract MetaturfHorseRacingData\n    function registerMetaturfHorseRacingDataAddress(address _addressOfMetaturfHorseRacingData) public isContractOwner {\n        metaturfHorseRacingData = MetaturfHorseRacingData(_addressOfMetaturfHorseRacingData);\n    }\n\n    /// @notice Checks if the address of the MetaturfHorseRacingData contract is set\n    /// @return bool true if is set\n    function isSetMetaturfHorseRacingDataAddress() public view returns(bool) {\n        if(address(MetaturfHorseRacingData(metaturfHorseRacingData)) == address(0)) return false;\n        return true;\n    }\n\n    /// @notice Gets the list of tokens \n    /// @return uint[] token list\n    function listTokens() public view returns(uint256[] memory) {\n        return tokenList;\n    }\n\n    /// @notice Gets the number of tokens \n    /// @return uint256 number of tokens\n    function getNumberOfTokens() public view returns (uint256) {\n        return _horseTokenIds.current(); \n    }\n\n    /// @notice Get information about a token\n    /// @param _horsetokenid token ID\n    /// @return uint horse ID\n    /// @return string tokenURI\n    function getHorseNFTInfo(uint256 _horsetokenid) public view returns (uint,string memory) {\n        return (\n            horseToken[_horsetokenid].horseid,\n            horseToken[_horsetokenid].tokenURI\n        );\n    }\n\n    /// @notice Checks if a horse ID has been minted\n    /// @param _horseid horse ID\n    /// @return bool true if is minted\n    function horseIsMinted(uint256 _horseid) public view returns(bool) {\n        if (horseidToTokenid[_horseid] == 0) return false;\n        return true;\n    }\n    \n    /// @notice Mints a token based on a horse ID\n    /// @param _horseid horse ID\n    /// @return uint token ID\n    function mint(uint _horseid, address _to) public returns (uint256) {\n        require(_to != address(0), \"ERC721: mint to the zero address\");\n        require(!horseIsMinted(_horseid), \"ERC721: token for this horse already minted\");\n        require(horseidToTokenid[_horseid] == 0, \"Token already minted\");\n        require(metaturfHorseRacingData.theHorseExists(_horseid), \"mint: the horse does not exist\");\n\n        _horseTokenIds.increment();\n\n        uint256 newHorseTokenId = _horseTokenIds.current();\n\n        horseToken[newHorseTokenId] = HorseToken({\n            horseid: _horseid,\n            owner: _to,\n            tokenURI: \"\"\n        });\n\n        tokenList.push(newHorseTokenId);\n\n        horseidToTokenid[_horseid] = newHorseTokenId;\n\n        _safeMint(_to, newHorseTokenId);\n\n        return newHorseTokenId;\n    }\n    \n    /// @notice Builds the tokenURI 100% on-chain\n    /// @notice base image under Creative Commons License created by potrace 1.15 and written by Peter Selinger\n    /// @dev uses horse attributes: name and wins\n    /// @dev it could be extended to more attributes\n    /// @param _tokenId token ID\n    /// @return string tokenURI\n    function tokenURI(uint256 _tokenId) view override public returns (string memory) {\n\n        uint256 horseid = horseToken[_tokenId].horseid;\n\n        string memory horse_name;\n        uint256 wins;\n        (horse_name,wins) = metaturfHorseRacingData.getHorse(horseid);\n        \n        string[17] memory parts;\n        \n        parts[0] = '<svg version=\"1.0\" xmlns=\"http://www.w3.org/2000/svg\" fill=\"#17252A\" width=\"128.000000pt\" height=\"134.6000000pt\" viewBox=\"0 0 1280.000000 1346.000000\" preserveAspectRatio=\"xMidYMid meet\">';\n        parts[1] = '<metadata>Created by potrace 1.15, written by Peter Selinger 2001-2017</metadata><rect width=\"100%\" height=\"100%\" fill=\"#DEF2F1\" /><g transform=\"translate(0.000000,946.000000) scale(0.100000,-0.100000)\" stroke=\"none\"><path fill=\"#2B7A78\" d=\"M6985 9451 c-323 -53 -617 -257 -764 -533 -75 -138 -106 -237 -121 -380 -40 -387 199 -809 554 -982 182 -88 344 -123 530 -113 490 25 ';\n        parts[2] = '877 366 971 854 28 143 19 253 -35 438 -118 407 -517 706 -960 720 -69 2 -147 0 -175 -4z\"/><path fill=\"#2B7A78\" d=\"M11060 8573 c-575 -85 -1000 -208 -1405 -408 -362 -179 -682 -418 -944 -706 -232 -255 -389 -464 -876 -1169 -201 -291 -462 -662 -491 -699 -5 -6 -246 86 -377 144 -357 160 -617 379 -772 651 -118 207 -182 451 -240 909 -29 234 -54 ';\n        parts[3] = '347 -101 459 -60 142 -145 232 -261 277 -70 27 -229 32 -308 10 -125 -35 -268 -139 -357 -259 -206 -279 -214 -611 -26 -1092 68 -175 232 -469 366 -659 322 -455 913 -780 1598 -880 l116 -17 -84 -80 c-340 -322 -1092 -607 -1878 -713 -264 -36 -234 -38 -330 30 -171 123 -360 228 -590 329 -275 121 -900 353 -1030 381 -139 31 -364 33 -454 6 -148 -46 -250 -126 -341 -266 -114 -176 -150 -350 -100 -493 8 -23 13 -43 12 -45 -10 -10 -852 86 -1167 133 -409 61 -521 78 -725 113 ';\n        parts[4] = '-126 22 -231 39 -232 37 -6 -5 -61 -271 -58 -277 3 -3 21 -9 42 -12 21 -3 153 -25 293 -50 689 -123 1239 -192 1842 -232 248 -17 242 -15 381 -118 213 -159 424 -245 1017 -413 423 -120 530 -165 675 -282 122 -98 221 -254 219 -344 -6 -158 -205 -519 -428 -774 -627 -714 -1165 -1311 -1499 -1662 -261 -274 -286 -302 -318 -365 l-20 -38 38 7 c21 3 65 15 98 26 77 25 496 248 875 466 162 93 435 249 605 347 398 229 562 339 765 514 604 522 939 1012 1040 1520 44 225 18 397 -93 616 -64 124 -158 251 -316 423 -67 72 -121 132 -119 132 2 0 48 9 103 20 593 115 1015 245 1360 417 161 81 194 99 325 186 152 101 ';\n        parts[5] = '180 124 335 283 l140 143 750 11 c1006 14 1111 22 1171 93 l26 31 -28 8 c-38 10 -214 34 -394 53 -390 41 -519 61 -827 125 -349 72 -404 85 -405 93 0 5 63 97 140 205 76 108 213 305 302 437 440 647 650 923 884 1164 432 443 936 712 1631 871 181 41 394 79 399 71 2 -3 43 -110 91 -236 226 -599 261 -690 565 -1485 73 -190 149 -390 170 ';\n        parts[6] = '-445 21 -55 115 -302 210 -550 95 -247 185 -484 200 -525 16 -41 65 -169 109 -283 44 -115 77 -215 74 -224 -7 -18 -168 -126 -449 -301 -152 -95 -219 -132 -242 -132 -37 0 39 -59 -1107 859 -573 459 -897 712 -932 728 -66 30 -108 26 -158 -18 -39 -35 -59 -86 -50 -128 9 -44 73 -110 208 -218 67 -53 152 -121 189 -151 l67 -54 3 -1552 c3 ';\n        parts[7] = '-1461 4 -1553 21 -1579 24 -38 71 -59 143 -65 62 -5 62 -4 79 28 53 103 50 -1 55 1523 l5 1409 205 -168 c250 -205 759 -611 1049 -838 200 -156 215 -166 235 -153 11 8 242 155 511 327 270 171 500 321 513 333 12 11 22 30 22 42 0 29 -41 146 -143 410 -47 121 -144 375 -217 565 -73 190 -154 401 -180 470 -43 112 -145 380 -390 1020 -43 113 -113 295 -155 405 -42 110 -135 353 -205 540 -71 187 -165 436 -209 554 -45 117 -81 215 -81 217 0 7 -62 2 -160 -13z\"/></g>';\n        parts[8] = '<text x=\"10\" y=\"1120\" font-weight=\"bold\" font-size=\"7em\">';\n        parts[9] = horse_name;\n        parts[10] = '</text><text x=\"10\" y=\"1300\" font-size=\"7em\">#';\n        parts[11] = String.toString(_tokenId);\n        parts[12] = ' (';\n        parts[13] = String.toString(horseid);\n        parts[14] = ')</text><text x=\"800\" y=\"1300\" font-size=\"7em\">Wins: ';\n        parts[15] = String.toString(wins);\n        parts[16] = '</text></svg>';\n\n        string memory output = string(abi.encodePacked(parts[0], parts[1], parts[2], parts[3], parts[4], parts[5], parts[6], parts[7]));\n        output = string(abi.encodePacked(output, parts[8], parts[9], parts[10], parts[11], parts[12], parts[13]));\n        output = string(abi.encodePacked(output, parts[14], parts[15], parts[16]));\n\n        return output;\n    }\n}\n\n/// @notice String library\nlibrary String {\n    bytes16 private constant _HEX_SYMBOLS = \"0123456789abcdef\";\n    /**\n     * @dev Converts a `uint256` to its ASCII `string` decimal representation.\n     */\n    function toString(uint256 value) internal pure returns (string memory) {\n        // Inspired by OraclizeAPI's implementation - MIT licence\n        // https://github.com/oraclize/ethereum-api/blob/b42146b063c7d6ee1358846c198246239e9360e8/oraclizeAPI_0.4.25.sol\n\n        if (value == 0) {\n            return \"0\";\n        }\n        uint256 temp = value;\n        uint256 digits;\n        while (temp != 0) {\n            digits++;\n            temp /= 10;\n        }\n        bytes memory buffer = new bytes(digits);\n        while (value != 0) {\n            digits -= 1;\n            buffer[digits] = bytes1(uint8(48 + uint256(value % 10)));\n            value /= 10;\n        }\n        return string(buffer);\n    }\n\n    /**\n     * @dev Converts a `uint256` to its ASCII `string` hexadecimal representation.\n     */\n    function toHexString(uint256 value) internal pure returns (string memory) {\n        if (value == 0) {\n            return \"0x00\";\n        }\n        uint256 temp = value;\n        uint256 length = 0;\n        while (temp != 0) {\n            length++;\n            temp >>= 8;\n        }\n        return toHexString(value, length);\n    }\n\n    /**\n     * @dev Converts a `uint256` to its ASCII `string` hexadecimal representation with fixed length.\n     */\n    function toHexString(uint256 value, uint256 length) internal pure returns (string memory) {\n        bytes memory buffer = new bytes(2 * length + 2);\n        buffer[0] = \"0\";\n        buffer[1] = \"x\";\n        for (uint256 i = 2 * length + 1; i > 1; --i) {\n            buffer[i] = _HEX_SYMBOLS[value & 0xf];\n            value >>= 4;\n        }\n        require(value == 0, \"Strings: hex length insufficient\");\n        return string(buffer);\n    }\n}",
  "sourcePath": "/Users/dmolina/Consensys/blockchain-developer-bootcamp-final-project/contracts/MetaturfNFT.sol",
  "compiler": {
    "name": "solc",
    "version": "0.8.10+commit.fc410830.Emscripten.clang"
  },
  "schemaVersion": "3.4.3",
  "updatedAt": "2021-11-18T08:13:57.047Z",
  "devdoc": {
    "author": "Daniel Molina",
    "custom:experimental": "Experimental contract based on [https://docs.openzeppelin.com/contracts/3.x/erc721]",
    "events": {
      "LogMint(uint256)": {
        "details": "LogMint event: horseid arg"
      }
    },
    "kind": "dev",
    "methods": {
      "approve(address,uint256)": {
        "details": "See {IERC721-approve}."
      },
      "balanceOf(address)": {
        "details": "See {IERC721-balanceOf}."
      },
      "constructor": {
        "details": "defaults to the token name and token symbolinitial owner is construct"
      },
      "getApproved(uint256)": {
        "details": "See {IERC721-getApproved}."
      },
      "getHorseNFTInfo(uint256)": {
        "params": {
          "_horsetokenid": "token ID"
        },
        "returns": {
          "_0": "uint horse ID",
          "_1": "string tokenURI"
        }
      },
      "getNumberOfTokens()": {
        "returns": {
          "_0": "uint256 number of tokens"
        }
      },
      "horseIsMinted(uint256)": {
        "params": {
          "_horseid": "horse ID"
        },
        "returns": {
          "_0": "bool true if is minted"
        }
      },
      "isApprovedForAll(address,address)": {
        "details": "See {IERC721-isApprovedForAll}."
      },
      "isSetMetaturfHorseRacingDataAddress()": {
        "returns": {
          "_0": "bool true if is set"
        }
      },
      "listTokens()": {
        "returns": {
          "_0": "uint[] token list"
        }
      },
      "mint(uint256,address)": {
        "params": {
          "_horseid": "horse ID"
        },
        "returns": {
          "_0": "uint token ID"
        }
      },
      "name()": {
        "details": "See {IERC721Metadata-name}."
      },
      "ownerOf(uint256)": {
        "details": "See {IERC721-ownerOf}."
      },
      "registerMetaturfHorseRacingDataAddress(address)": {
        "params": {
          "_addressOfMetaturfHorseRacingData": "address of contract MetaturfHorseRacingData"
        }
      },
      "safeTransferFrom(address,address,uint256)": {
        "details": "See {IERC721-safeTransferFrom}."
      },
      "safeTransferFrom(address,address,uint256,bytes)": {
        "details": "See {IERC721-safeTransferFrom}."
      },
      "setApprovalForAll(address,bool)": {
        "details": "See {IERC721-setApprovalForAll}."
      },
      "supportsInterface(bytes4)": {
        "details": "See {IERC165-supportsInterface}."
      },
      "symbol()": {
        "details": "See {IERC721Metadata-symbol}."
      },
      "tokenURI(uint256)": {
        "details": "uses horse attributes: name and winsit could be extended to more attributes",
        "params": {
          "_tokenId": "token ID"
        },
        "returns": {
          "_0": "string tokenURI"
        }
      },
      "transferFrom(address,address,uint256)": {
        "details": "See {IERC721-transferFrom}."
      }
    },
    "title": "Contract to mint NFTs 100% on-chain",
    "version": 1
  },
  "userdoc": {
    "kind": "user",
    "methods": {
      "constructor": {
        "notice": "Contract constructor"
      },
      "getHorseNFTInfo(uint256)": {
        "notice": "Get information about a token"
      },
      "getNumberOfTokens()": {
        "notice": "Gets the number of tokens "
      },
      "horseIsMinted(uint256)": {
        "notice": "Checks if a horse ID has been minted"
      },
      "isSetMetaturfHorseRacingDataAddress()": {
        "notice": "Checks if the address of the MetaturfHorseRacingData contract is set"
      },
      "listTokens()": {
        "notice": "Gets the list of tokens "
      },
      "mint(uint256,address)": {
        "notice": "Mints a token based on a horse ID"
      },
      "registerMetaturfHorseRacingDataAddress(address)": {
        "notice": "Sets the address of the contract containing the on-chain data needed for the tokens "
      },
      "tokenURI(uint256)": {
        "notice": "Builds the tokenURI 100% on-chainbase image under Creative Commons License created by potrace 1.15 and written by Peter Selinger"
      }
    },
    "notice": "inspired in generative NFTs and Loot project [https://www.lootproject.com]",
    "version": 1
  }
}